:020000040800F2
:1000000028140020050100087D0C00082B0B0008B7
:10001000790C00084B0800088B170008000000004E
:10002000000000000000000000000000A111000816
:100030004F080008000000001D100008B51200085D
:100040001B0100081B0100081B0100081B01000820
:100050001B0100081B0100081B0100081B01000810
:100060001B0100081B0100081B0100081B01000800
:100070001B0100081B0100081B0100081B010008F0
:100080001B0100081B0100081B0100081B010008E0
:100090001B0100081B0100081B0100081B010008D0
:1000A0001B0100081B0100081B0100081B010008C0
:1000B000191300083D1300081B0100081B0100086C
:1000C0001B0100081B0100081B0100081B010008A0
:1000D0001B010008C1140008DD140008ED1400081D
:1000E0001B0100081B0100081B010008DFF810D0ED
:1000F00000F068FB00480047D93F0008AFF30080DC
:100100002814002005480047FEE7FEE7FEE7FEE76B
:10011000FEE7FEE7FEE7FEE7FEE7FEE7ED0000088C
:1001200040EA01039B0703D009E008C9121F08C079
:10013000042AFAD203E011F8013B00F8013B521EF9
:10014000F9D27047D2B201E000F8012B491EFBD270
:1001500070470022F6E710B513460A4604461946D2
:10016000FFF7F0FF204610BDF0B480EA0102D40F83
:100170004200B2EB410F02D20246084611464A0045
:1001800042D0C30DDDB2C1F3C752AD1A202D35DA0E
:10019000C1F3160141F4000204B15242C5F1200638
:1001A00002FA06F12A411044B3EBD05F23D0C4B168
:1001B000012DA0EBC35009DCF0BC4FF0004202EA75
:1001C000C352DBB200F5000000F027B9400000F197
:1001D000807000EBC350A0F1807040EAD1704900FC
:1001E00009E0490841EAC071A0EBC35000F50000E6
:1001F000400800EBC350F0BC00F006B96142012298
:1002000002EB4101001BF6E7F0BC704781F00041B2
:10021000AAE780F00040A7E72DE9F04D81EA03044A
:1002200004F0004B21F0004514464FF0000A23F083
:10023000004150EA050220D054EA01021DD0C5F366
:100240000A570246C5F31303C1F31300C1F30A565C
:1002500040F4801543F48013A7EB0608101BD64624
:1002600008F2FD3873EB050002D308F1010801E044
:1002700092185B41B8F1000F03DA00200146BDE897
:10028000F08D00204FF48011064684460EE0171BC7
:1002900073EB050705D3121B63EB050306434CEA1A
:1002A000010C49084FEA300092185B4150EA0107FF
:1002B000EDD152EA030012D082EA040083EA05017C
:1002C000084305D0101BAB4106D20122002306E0F3
:1002D00000224FF0004302E06FF0010253101AEBCE
:1002E00006004CEB085110EB0A0041EB0B01BDE896
:1002F000F04D00F0C0B896230022114600F08DB8F2
:100300000EB540F2334102910021CDE900110A46B9
:100310000B4600F0BFF803B000BD20F00040C10D57
:10032000C0F3160040F400007F2901DA0020704776
:10033000962903DCC1F19601C84070479639884080
:10034000704701F0004330B421F0004150EA01024F
:1003500006D00A0DA2F56072C1F31301002A02DC77
:1003600030BC00207047440F44EAC104C100E018CB
:1003700030BC00EBC25000F047B830B50B46014628
:1003800000202022012409E021FA02F59D4205D334
:1003900003FA02F5491B04FA02F52844151EA2F1DE
:1003A0000102F1DC30BD2DE9F05F054600209246E8
:1003B0009B4688460646814640241BE02846414627
:1003C0004746224600F01FFA53465A46C01A91414A
:1003D00010D311461846224600F006FA2D1A67EB94
:1003E00001084F4622460120002100F0FDF917EBDD
:1003F00000094E41201EA4F10104DFDC48463146CD
:100400002A464346BDE8F09F0029A8BF7047401C1C
:10041000490008BF20F00100704710B4B0FA80FC1A
:1004200000FA0CF050EA010404BF10BC704749B157
:10043000CCF1200421FA04F411FA0CF118BF0121C7
:1004400021430843A3EB0C01CB1D4FEA00614FEAA7
:10045000102042BF002010BC704700EBC350104476
:100460000029A4BF10BC7047401C490008BF20F001
:10047000010010BC704710B5141E73F1000408DAB7
:10048000401C41F1000192185B411A4301D120F058
:10049000010010BD2DE9F04D92469B4611B1B1FA15
:1004A00081F202E0B0FA80F22032904600F09CF92E
:1004B00004460F4640EA0A0041EA0B0153465A46F9
:1004C000084313D0114653EA010019D0C8F1400285
:1004D000504600F098F905460E46504659464246A9
:1004E00000F082F9084305D0012004E02046394697
:1004F000BDE8F08D0020054346EAE0762C43374303
:100500000A986305E40AA0EB08000022FD0A44EA09
:1005100047540A3002D500200146E9E701051019C9
:100520006941DDE9084500196941BDE8F04DA2E7E0
:100530002DE9FE4F804681EA0300C00F0C46009073
:1005400021F0004123F00045B8EB0200A94105D29B
:100550004046214690461C460B46024623F000408A
:10056000104347D0270DC7F30A00C3F30A51029086
:10057000401A019040286BDAC3F3130040F4801B4B
:100580000098924620B10023D2EB030A63EB0B0BD9
:1005900001985946C0F14002504600F025F9064640
:1005A0000D4650465946019A00F03DF910EB0800FF
:1005B0006141002487EA115284EAE7731A4340D06C
:1005C000009A62B3019A012A4FEA075215DC001B18
:1005D00061EB02014FF0004202EA0752CDE900420E
:1005E000001C41F5801132462B46FFF753FF03B044
:1005F000BDE8F08F40462146F9E7001B61EB0201A0
:10060000001C41F5801300185B412018A2F500176B
:1006100047EB030140EAD570B6196D4111E06D0852
:100620004FEA360645EAC0754FEA0752001B61EBF8
:100630000201001C41F5801149084FEA3000001901
:10064000514132462B4603B0BDE8F04FFFF713BFD0
:100650000098012240000023D0EB020263EBE0731C
:10066000009821464FEAE074B8EB000061EB04010A
:10067000E9E783F000435BE781F0004158E72DE9AB
:10068000FE4F81EA030404F0004421F0004100948D
:100690004FF0000B23F0004350EA01045ED052EA11
:1006A00003045BD0C3F30A54C1F30A552C44A4F2EB
:1006B000F3340194A0FB0254C1F3130141F48011FF
:1006C000C3F3130343F4801301FB024400FB034E06
:1006D000840A970A44EA815447EA8357A4FB0768CF
:1006E00002958D0A05FB07854FEA932C04FB0C54F9
:1006F0002705029D4FEA065847EA1637B5EB08056D
:100700006EEB070C870E920E47EA811742EA8312BE
:10071000A7FB0201B6EB0B0164EB00042B0D43EACF
:100720000C335E1844EB1C50DA465146E7FB0201DD
:10073000C5F313044FEA0B3343EA14534FEA043270
:10074000019C43EA0603A4F10C040294009CCDE949
:1007500000B4FFF79FFE03B0BDE8F08F0020014614
:10076000F9E7C1F30A52C1F3130140F2FF3341F438
:1007700080119A4202DA00200146704740F233436A
:100780009A42A2F2334202DC524200F03CB800F03E
:100790002BB8000030B5041E71F1000404DB4FF0EB
:1007A0000044404264EB0101141E73F1000405DBB8
:1007B0001C464FF00043524263EB0403994208BFCA
:1007C000904230BD064C074D06E0E06840F0010362
:1007D00094E8070098471034AC42F6D3FFF78AFC40
:1007E000DC4D0008FC4D0008202A04DB203A00FA0A
:1007F00002F1002070479140C2F1200320FA03F378
:10080000194390407047202A04DB203A21FA02F075
:100810000021704721FA02F3D040C2F1200291403A
:10082000084319467047202A06DBCB17203A41FAC5
:1008300002F043EAE07306E041FA02F3D040C2F16D
:100840002002914008431946704700BFFEE77047F9
:100850002DE9F04102460025002600200023002457
:10086000002791F803C00CF00F0591F803C00CF0BD
:10087000100CBCF1000F03D091F802C04CEA050542
:1008800091F800C0BCF1000F31D0146800202BE0BB
:100890004FF0010C0CFA00F3B1F800C00CEA0306AB
:1008A0009E4220D183004FF00F0C0CFA03F7BC439B
:1008B00005FA03FC4CEA040491F803C0BCF1280FCC
:1008C00006D14FF0010C0CFA00FCC2F814C00AE08B
:1008D00091F803C0BCF1480F05D14FF0010C0CFAA0
:1008E00000FCC2F810C0401C0828D1D31460B1F835
:1008F00000C0BCF1FF0F34DD546800202EE000F191
:10090000080C4FF0010808FA0CF3B1F800C00CEA2B
:1009100003069E4221D183004FF00F0C0CFA03F71F
:10092000BC4305FA03FC4CEA040491F803C0BCF193
:10093000280F05D100F1080C08FA0CF8C2F8148051
:1009400091F803C0BCF1480F07D100F1080C4FF03B
:10095000010808FA0CF8C2F81080401C0828CED311
:100960005460BDE8F0810246002093680B400BB153
:10097000012000E00020704741617047016170472D
:1009800010B541F61F41092000F0EEFC4FF416505F
:1009900003F0C4FD044800210160017103F0E8FA8E
:1009A00003F004FD10BD00004D00002000BF07480B
:1009B000006800F4E06006490843001D0349086030
:1009C000BFF34F8F00BF00BFFEE700000CED00E05B
:1009D0000000FA0510B5044604B910BD01212068D5
:1009E00000F001FD30B10121206800F0EDFC20464F
:1009F00000F002F800BFF0E710B504460348844257
:100A000003D103F0E7FA02F0EBFF10BD8C000020E9
:100A100070B5044604B970BD40F22551206800F05D
:100A2000F0FDE8B1206800F0A7FEC5B26068B0B183
:100A30006089A0B1606805706068401C6060608972
:100A4000401E6081608950B920202061002240F260
:100A50002551206800F0FFFD204600F019F800BF86
:100A600000BFD8E770B504460E4615460CB106B176
:100A70000DB9012070BD666025816581222020614D
:100A8000012240F22551206800F0E5FD0020F1E749
:100A900010B5044606492068884208D1012105485E
:100AA00002F0E8FE012203490348FFF7DBFF10BD17
:100AB000004400404C000020780000202DE9F04167
:100AC00004460E46174698460CB106B117B90120E8
:100AD000BDE8F0812120E06000250DE000E000BFCE
:100AE0008021206800F080FD0028F8D0715D20682A
:100AF00000F047FE681C85B2BD42EFDB00BF40211D
:100B0000206800F071FD0028F9D02020E06000206E
:100B1000DEE770B504460D4616464FF0FF33324609
:100B200029462046FFF7CAFF70BD00BFFEE7000060
:100B300010B540210348FFF721FF40210148FFF78E
:100B40001BFF10BD000C014008B50121082000F07A
:100B500087FA4FF40050ADF8000003208DF8020032
:100B600048208DF8030069460F48FFF771FE4FF4E7
:100B70008040ADF8000003208DF8020048208DF879
:100B8000030069460848FFF763FE4FF40040ADF8E4
:100B9000000003208DF8020048208DF8030069460C
:100BA0000148FFF755FE08BD000C014010B50020BC
:100BB000204908702048006838B11F48001D0068AF
:100BC00018B11D480830006800BB1C480078012897
:100BD0001CD10020194908700A2001F0E9FA1648D2
:100BE000006818B90120134908701FE01248001D61
:100BF000006818B902200F49087017E00E48083045
:100C0000006898B903200B4908700FE00A48006893
:100C100001280BD10848001D0068012806D10648AC
:100C200008300068012801D10449087001480078A3
:100C300010BD00003D000020348121423C00002016
:100C400008B50121102000F00BFA4FF40050ADF868
:100C5000000003208DF8020010208DF80300694683
:100C60000348FFF7F5FD01200249086008BD0000B8
:100C700000100140B401224200BFFEE770470000AF
:100C800070B5002100230F22C47804B3154C2468EA
:100C900004F4E064C4F5E064210AC1F10403CA402D
:100CA000447804FA03F184781440214309010E4C7E
:100CB0000678A155047804F01F050124AC4005789E
:100CC0006D11AD0005F1E025C5F8004109E004789B
:100CD00004F01F050124AC40044D0678761145F858
:100CE000264070BD0CED00E000E400E080E100E093
:100CF00002490143024A1160704700000000FA05F2
:100D00000CED00E070B5002418E004F1B000002103
:100D100000F05FF90021084600F05BF90021102087
:100D200000F057F9002505E00121002000F051F9FD
:100D3000681CC5B2802DF7DB601CC4B2082CE4DB54
:100D400070BD000010B540210748FFF717FE802155
:100D50000548FFF713FE80210348FFF70DFE4021F1
:100D60000148FFF709FE10BD000C014010B54021FD
:100D70000548FFF703FE80210348FFF7FDFD8021B2
:100D80000148FFF7FBFD10BD000C014008B5012133
:100D9000082000F065F94020ADF8000010208DF823
:100DA000030003208DF8020069464748FFF750FD15
:100DB00040214548FFF7E2FD0121082000F050F9ED
:100DC0008020ADF8000010208DF8030003208DF87E
:100DD000020069463C48FFF73BFD80213A48FFF797
:100DE000CDFD4FF4487001F0E3F90021AE2000F092
:100DF000F0F80021084600F0ECF80021102000F087
:100E0000E8F80021402000F0E4F80021B02000F0D4
:100E1000E0F80021812000F0DCF80021FF2000F044
:100E2000D8F80021A12000F0D4F80021A62000F07D
:100E3000D0F80021A82000F0CCF800213F2000F0DD
:100E4000C8F80021C82000F0C4F80021D32000F029
:100E5000C0F80021084600F0BCF80021D52000F0C1
:100E6000B8F80021802000F0B4F80021D82000F06C
:100E7000B0F80021052000F0ACF80021D92000F0E6
:100E8000A8F80021F12000F0A4F80021DA2000F0F9
:100E9000A0F80021122000F09CF80021DB2000F0D7
:100EA00098F80021302000F094F800218D2000F007
:100EB00090F80021142000F08CF80021AF2000F001
:100EC00088F8FFF71FFF08BD000C014070B504460D
:100ED0000D4605F1B000002100F07BF8102141EA39
:100EE0001410002100F075F804F00F00002100F04C
:100EF00070F870BD2DE9F04780460E4691461F46BA
:100F000000250024A9F12000C5B2B8F17F0F02DD51
:100F1000A046B01CC6B2102F00D024D131464046A6
:100F2000FFF7D4FF002408E004EB0511184A505CD9
:100F3000012100F04EF8601CC4B2082CF4DB701CD8
:100F4000C1B24046FFF7C2FF002409E004EB0511DF
:100F500008310F4A505C012100F03BF8601CC4B21C
:100F6000082CF3DB12E031464046FFF7AFFF0024C8
:100F70000AE005EB4501074A02EB4101085D01214A
:100F800000F027F8601CC4B2062CF2DBBDE8F08745
:100F9000EC470008C44500082DE9F04104460F461F
:100FA0001546984600260FE0AA5D4346394620467E
:100FB000FFF7A0FF04F10800C4B2782C02DD002482
:100FC000B81CC7B2701CC6B2A85D0028ECD1BDE841
:100FD000F08170B504460D461DB1E0B200F018FC7A
:100FE00002E0E0B200F0FEFB70BD0FB430B589B096
:100FF00004460D460FA80090202101A8009B0E9AE0
:1010000000F02CFC00200090102301AA2946204665
:10101000FFF7C2FF09B030BC5DF814FB7047000059
:1010200029B1064AD2690243044BDA6104E0034A5B
:10103000D2698243014BDA61704700000010024020
:1010400029B1064A12690243044B1A6104E0034ABB
:1010500012698243014B1A61704700000010024080
:1010600029B1064A92690243044B9A6104E0034A9B
:1010700092698243014B9A61704700000010024060
:1010800029B1064AD2680243044BDA6004E0034AFD
:10109000D2688243014BDA607047000000100240C2
:1010A00030B500210022002400232D4D6D6805F08D
:1010B0000C0121B1042905D0082923D105E0294DCF
:1010C000056022E0274D05601FE0254D6D6805F4A1
:1010D0007012234D6D6805F48034022505EB9242B1
:1010E0001CB9214D554305600BE01D4D6D6805F49D
:1010F00000351DB11C4D5543056002E0194D5543A7
:10110000056002E0174D056000BF00BF144D6D681B
:1011100005F0F0010909154D6B5C0568DD4045607F
:101120000F4D6D6805F4E061090A104D6B5C456870
:10113000DD4085600A4D6D6805F46051C90A0B4DAC
:101140006B5C4568DD40C560054D6D6805F4404148
:10115000890B074D6B5CC568B5FBF3F5056130BDC8
:101160000010024000127A0000093D001800002023
:101170002800002008B501210820FFF771FF4FF477
:101180000070ADF8000003208DF8020014208DF8E7
:10119000030069460148FFF75BFB08BD000C0140F6
:1011A000704710B500F002F810BD00000CB500202B
:1011B000019000903348006840F480303149086065
:1011C00000BF3048006800F4003000900198401CD7
:1011D0000190009818B90198B0F5A06FF1D1294895
:1011E000006800F4003010B10120009001E0002000
:1011F00000900098012843D12348006840F0100077
:10120000214908600846006820F00300086008468D
:10121000006840F0020008601A48406819494860B8
:101220000846406848600846406840F4806048606E
:101230000846406820F47C1048600846406840F446
:10124000E81048600846006840F08070086000BF01
:101250000C48006800F000700028F9D00948406888
:1012600020F00300074948600846406840F002004B
:10127000486000BF0348406800F00C000828F9D11E
:101280000CBD00000010024000200240042808D1DC
:101290004FF0E021096941F004014FF0E0221161B3
:1012A00007E04FF0E021096921F004014FF0E0224E
:1012B000116170477047000010B51348006840F096
:1012C00001001149086008464068104908400E496D
:1012D0004860084600680E4908400B490860084607
:1012E000006820F4802008600846406820F4FE0072
:1012F00048604FF41F008860FFF753FF4FF0006015
:101300000449086010BD0000001002400000FFF812
:10131000FFFFF6FE08ED00E010B50121880700F0A0
:1013200062F840B104480068401C0349086001218C
:10133000880700F049F810BD4000002010B50121D9
:10134000064800F050F820B105480068401C0449E8
:1013500008600448FFF73EFB10BD00000004004099
:10136000400000208C0000207FB505460C4601217E
:101370000220FFF755FEADF80450ADF80040002004
:10138000ADF80600ADF8020069460E4800F046F8D8
:10139000012211460B4800F037F80121094800F0FE
:1013A00016F81D208DF80C0000208DF80D0002208D
:1013B0008DF80E0001208DF80F0003A8FFF760FCE8
:1013C0007FBD000000040040CA430282704721B183
:1013D000028842F00102028004E002884FF6FE73A8
:1013E0001A400280704730B50246002000230024D6
:1013F000158A05EA0103958905EA010413B10CB1C8
:10140000012000E0002030BD1AB183890B438381A5
:1014100002E083898B4383817047000000220288A9
:101420001D4B98420ED01D4B98420BD0B0F1804F0F
:1014300008D01B4B984205D01A4B984202D01A4B49
:10144000984204D14FF68F731A404B881A43174BBA
:10145000984207D0164B984204D04FF6FF431A40EB
:10146000CB881A4302808B8883850B8803850A4BBF
:1014700098420BD0094B984208D00E4B984205D0A9
:101480000D4B984202D00D4B984201D10B7A038646
:101490000123838270470000002C0140003401408A
:1014A0000004004000080040000C00400010004014
:1014B0000014004000400140004401400048014049
:1014C00010B540F22551044800F09BF810B10248D5
:1014D00000F052F910BD00000038014010B502487C
:1014E000FFF796FA10BD00007800002010B540F21A
:1014F00025510D4800F085F8A0B10B48001D00886B
:10150000C4B20A480088B0F5C87F08DA07480188E5
:101510000088401C054A10800548445402E0002021
:101520000249088010BD000000480040340000203F
:10153000D806002021B1828942F40052828104E061
:1015400082894DF6FF731A408281704710B50446B8
:101550002048844209D101218803FFF791FD002131
:101560004FF48040FFF78CFD32E01B48844209D1E4
:1015700001214804FFF764FD00214FF40030FFF71C
:101580005FFD25E01548844209D101218804FFF759
:1015900057FD00214FF48020FFF752FD18E010485E
:1015A000844209D10121C804FFF74AFD00214FF40C
:1015B0000020FFF745FD0BE00A48844208D10121D5
:1015C0000805FFF73DFD00214FF48010FFF738FDBF
:1015D00010BD0000003801400044004000480040B9
:1015E000004C00400050004002460020B1F5007F52
:1015F00000D100BF13880B400BB1012000E0002098
:10160000704770B50246002400230025002040F6F4
:101610006A16B14200D100BFC1F3421501F01F03A9
:10162000012606FA03F3012D02D19689334006E024
:10163000022D02D1168A334001E0968A33400C1203
:10164000012606FA04F41688344013B10CB10120C7
:1016500000E0002070BDF0B5034600240026002500
:10166000002040F66A17B94200D100BF1846C1F306
:10167000421401F01F06012707FA06F5012C01D1DB
:101680000C3004E0022C01D1103000E014301AB10B
:1016900007682F43076002E00768AF430760F0BDAB
:1016A0002DE9F04786B005460E460024A24600BF4D
:1016B000A1460027B08900B100BF2F462C8A4CF606
:1016C000FF700440F08804432C82AC894EF6F3107E
:1016D0000440B08831890843718908430443AC81D0
:1016E000AC8A4FF6FF400440B0890443AC8201A8A5
:1016F000FFF7D6FC1F48874202D1DDF810A001E0B9
:10170000DDF80CA0A88900F4004040B10AEBCA0043
:1017100000EB0A1031684900B0FBF1F807E00AEB72
:10172000CA0000EB0A1031688900B0FBF1F86420B0
:10173000B8FBF0F004012009642101FB1089A8899D
:1017400000F4004040B1322000EBC900B0FBF1F0E2
:1017500000F00700044308E0322000EB0910642188
:10176000B0FBF1F000F00F0004432C8106B0BDE89F
:10177000F08700000038014001468888C0F3080067
:101780007047C1F308028280704700BFFEE7000087
:101790002DE9F04105462C4640211148FFF7ECF8B1
:1017A000002619E0274607F08007802F04D180210A
:1017B0000B48FFF7E3F803E080210948FFF7DCF866
:1017C0006006040E40210648FFF7D8F8402104487F
:1017D000FFF7D2F8701CC6B2082EE3DBBDE8F0813B
:1017E000000C014010B50446FFF7ACFA7820FFF773
:1017F000CFFFFFF79DF90020FFF7CAFFFFF798F929
:101800002046FFF7C5FFFFF793F9FFF7AFFA10BDCA
:1018100010B50446FFF796FA7820FFF7B9FFFFF7F7
:1018200087F94020FFF7B4FFFFF782F92046FFF762
:10183000AFFFFFF77DF9FFF799FA10BD0FB4054B25
:1018400010B503A9044A029800F0F4F810BC5DF842
:1018500014FB0000E5230008900000207CB50C007C
:101860001D461646014601D0601E00E00020CDE96D
:101870000010064B6A462946304600F0DBF8002C83
:1018800002D0009A002111707CBD00003B210008AD
:1018900002E008C8121F08C1002AFAD17047704739
:1018A000002001E001C1121F002AFBD17047000097
:1018B0002DE9FF5F82B00021DDE90430020DDDF883
:1018C00040B0034318D044F61050A2F2FF32424316
:1018D0001514119801281FD0A5EB0B00401C5FEADE
:1018E000000A4FF000064E4FDFF83891B0465046E0
:1018F00015D5CAF1000413E0119801244AA3012868
:1019000001D16FEA0B010298119AC0E90031C0E9D8
:10191000024206B0BDE8F09FCBF10000DFE70446CD
:101920000021404A491842EB0450CDE9001012E072
:10193000E00707D032463B4640464946FEF79FFE49
:101940008046894632463B4610461946FEF797FECA
:1019500006460F466410002CEAD1DDE90401DDE9FA
:101960000023BAF1000F06DAFEF789FE42464B4625
:10197000FEF785FE05E0FEF74FFC42464B46FEF7BC
:101980004BFC04460E460022284BFEF703FF03D80B
:101990004FF0FF30014607E00022254B204631463C
:1019A000FEF7C6FDFEF7DDFE102409E0002C0ADB81
:1019B0000A220023FEF7F7FC039B30321A55641EFF
:1019C00050EA0102F2D1641C039AC4F111031444D9
:1019D000119A012A03D0012208430DD10AE00843DD
:1019E00004D000204FF0110B119072E7A3EB0B0510
:1019F0006D1E0DE05B4504DD4FF0000205F10105B1
:101A000004E003DA4FF00002A5F10105002AECD052
:101A100002981199C0E90231C0E9004579E7000058
:101A2000000014400000F03F300000000000F043D0
:101A30000000E03F2DE9FF4F95B09A4688460646E4
:101A40000025EEE1252877D100242746F94A012117
:101A5000039400E0044316F8013F203B01FA03F031
:101A60001042F7D130782A2811D06FF02F03307848
:101A7000A0F13002092A16D8039A44F0020402EBBE
:101A8000820203EB42021044761C0390EFE758F801
:101A9000042B0392002A03DA504244F400540390CA
:101AA00044F00204761C30782E2816D116F8010F67
:101AB00044F004042A280DD06FF02F023078A0F1F2
:101AC0003003092B09D807EB870302EB4303C71840
:101AD000761CF3E758F8047B761C30786C280FD01E
:101AE00006DC4C2817D068280DD06A2814D104E0F1
:101AF000742810D07A280FD10DE044F400140AE0C5
:101B000044F4801401E044F440147278824202D11B
:101B100004F58014761C761C307866280BD013DC14
:101B2000582877D009DC002875D04528F6D04628FB
:101B3000F4D047281AD193E118E0632835D06428FF
:101B400079D0652812D18BE1702873D008DC672822
:101B5000F1D069286FD06E280DD06F2806D1ACE087
:101B600073282CD0752874D0782853D052461799F2
:101B700090476D1C54E1C4F30250022809D0032899
:101B80000DD0D8F8001004280DD00D6008F104081D
:101B900046E1D8F80010EA17C1E90052F6E7D8F894
:101BA00000100D80F2E70D70F0E718F8041B8DF8B7
:101BB000001000208DF80100EB46012003E058F8EA
:101BC00004BB4FF0FF3061074FF0000102D40DE07D
:101BD00009F101018946B9420FDA8145F8DB1BF8AA
:101BE00009100029F4D108E009F101018946814278
:101BF000FADB1BF809100029F6D103985346A0EB35
:101C0000090721463846179A00F080FA284400EB6D
:101C1000090507E044E008E10DE01BF8010B52461E
:101C200017999047B9F10109F7D253462146384632
:101C3000179AF2E039E00A21C4F302524FF0000B88
:101C40000091022A06D058F8040BC117032A09D0C4
:101C50000AE023E008F1070020F00702F2E80201A1
:101C6000904605E000B2C117042A01D140B2C11765
:101C7000002906DA0A460021404261EB02012D22CA
:101C800002E0220504D52B228DF80420012203E076
:101C9000E20701D02022F7E7914657E00A2100E051
:101CA00010214FF0000B00910BE010214FF0000BC2
:101CB00044F004040827009103E008204FF0000BD3
:101CC0000090C4F30252022A05D058F8040B0021F8
:101CD000032A08D008E008F1070020F00702F2E824
:101CE0000201904603E080B2042A00D1C0B24FF056
:101CF000000922072AD53278702A07D0DDF800C003
:101D00008CF0100C5CEA0B0C05D00EE040228DF834
:101D10000420012208E050EA010306D030238DF8A8
:101D200004308DF8052002229146009B83F00803C1
:101D300053EA0B030AD150EA010201D1620705D52B
:101D400030228DF804204FF001097F1E3278582A86
:101D500004D039A20C920CAA02920BE03BA2F9E744
:101D60005B46009AFEF71FFB0C9B9B5C029A521E7F
:101D70000292137050EA0102F2D1029804A9081AE3
:101D800000F1200B600702D524F4803400E0012725
:101D90005F4502DDA7EB0B0000E0002000EB0B012C
:101DA000009003984944401A0390E00306D4534638
:101DB0002146179A039800F0A9F90544002706E088
:101DC00001A85246C05D179990476D1C7F1C4F4576
:101DD000F6DBE0030CD553462146179A039800F032
:101DE00095F9054404E030205246179990476D1C40
:101DF0000099481E00900029F5DC08E0029802993D
:101E000052460078491C0291179990476D1CBBF10E
:101E10000001ABF1010BF1DC5BE100F065F9054479
:101E2000761C307800287FF40DAE19B02846BDE846
:101E3000F08F000009280100303132333435363755
:101E40003839616263646566000000003031323306
:101E500034353637383941424344454600000000A6
:101E6000600700D4062708F1070020F00700F0E81B
:101E70000223804603F0004C5FEA0C0001D097A0DB
:101E800009E0200501D596A005E0E00701D095A066
:101E900001E0AFF24C001390307823F00043652846
:101EA0000CD006DC452809D046281DD047287FD114
:101EB0003BE0662818D067287AD136E00021112F40
:101EC00001DB112000E0781CCDE9000104A90CA879
:101ED000FFF7EEFCDDE90D010C9A4FF0000B07F166
:101EE0000109109200914EE04FF000400097CDE9BB
:101EF000011004A90CA8FFF7DBFCDDE90D020C9B27
:101F00000F994FF0000B91461093009211B9791C74
:101F100000EB0109B7EB090003D4C0F1FF3B07F167
:101F20000109A9EB0700019042E0012F00DA012727
:101F30000021112F01DD112000E03846CDE900011C
:101F400004A90CA8FFF7B4FCDDE90D010C9A00917F
:101F50004FF0000BB946109221070FD4009A4A4562
:101F600003DA914601E0A9F10109B9F1010F05DD9C
:101F7000109AA9F10101515C3029F4D0B84202DA7B
:101F800010F1040F03DA0121CDE9011010E000285F
:101F900003DC8344A9EB000102E0411C494500DD5C
:101FA0008946A0EB0B00401C01904FF000400290CE
:101FB000200705D40198484502DB4FF0FF3001901F
:101FC00000208DF84B0002980DF14B07B0F1004F47
:101FD00025D002200C902B200D90029800280CDABE
:101FE000404202902D200D9007E00A210298FEF752
:101FF000C4F93031029007F8011D0C99481E0C906D
:102000000029F2DC02980028EFD1791E0D980870A3
:10201000307800F0200040F0450007F8020D11A8CC
:10202000C01BC01D02901398007800B1012000EB86
:102030000901019801EBE071029801440398401AEC
:10204000401E0390E00306D453462146179A039896
:1020500000F05CF805441398007818B152461799BF
:1020600090476D1CE00323D553462146179A0398E9
:1020700000F04CF805441BE0BBF1000F07DB0098B3
:10208000584504DD1098179910F80B0001E01799D6
:1020900030205246904701980BF1010B401E05F18C
:1020A0000105019004D12E205246179990476D1CCE
:1020B000B9F10001A9F10109DEDC05E017F8010B17
:1020C0005246179990476D1C0299481E02900029AC
:1020D000F4DC53462146179A03989EE62D00000033
:1020E0002B000000200000002DE9F04104460025EF
:1020F0001E461746880404D405E039462020B04720
:102100006D1C641EF9D52846BDE8F0812DE9F0412B
:10211000044600251E469046C80301D5302700E03E
:102120002027880404D505E041463846B0476D1C99
:10213000641EF9D52846BDE8F0814A68002A06D019
:102140000A68531C0B6010704868401E4860704756
:1021500002460021002001B907E001F007030BB996
:10216000C80802E0012303EBD100704710B56FF0FF
:102170000400FFF78BF80A4800680A49B0FBF1F049
:10218000094908700846007800EB4001C1EBC01017
:102190004FF6FF7101EAC0000449088010BD00003D
:1021A0000400002000127A002C0000202E000020E5
:1021B0000146114A12884A434FF0E0235A61002237
:1021C0009A611A46126942F001021A6100BF4FF08B
:1021D000E022106900F001021AB100F48032002AF6
:1021E000F5D04FF0E022126922F001024FF0E02317
:1021F0001A6100229A6170472E0000200146114AA0
:1022000012784A434FF0E0235A6100229A611A463D
:10221000126942F001021A6100BF4FF0E02210691A
:1022200000F001021AB100F48032002AF5D04FF01C
:10223000E022126922F001024FF0E0231A6100222D
:102240009A6170472C00002008B501210820FEF794
:1022500007FF0120ADF8000003208DF802000420E4
:102260008DF8030069460248FEF7F2FA08BD000047
:10227000000C014008B501210820FEF7F1FE012005
:10228000ADF8000003208DF8020010208DF8030047
:1022900069460248FEF7DCFA08BD0000000C014068
:1022A00010B500BF01210C48FEF75DFB0028F9D0F6
:1022B0002820FFF7A3FF01210748FEF754FB012860
:1022C00008D100BF01210448FEF74DFB0128F9D0D9
:1022D000012010BD0020FCE7000C014070B5002477
:1022E000002508E04FF6FF7000EA4404FFF7D8FF2E
:1022F0000443681C85B2082DF4DB204670BD000045
:1023000070B50446002500F033F800F049F850BBE2
:1023100000BF00F045F80028FBD000BF00F040F8F7
:102320000128FBD0002504E0FFF7D8FF6055681CAA
:1023300085B2052DF8DB00BF00F032F80028FBD095
:10234000FFF798FF01210948FEF718FB2078617814
:102350000844A1780844E1780844C6B22079B04224
:1023600001D0012070BD0020FCE70000000C0140FE
:1023700010B5FFF77FFF01210848FEF7FDFA44F68C
:102380003820FFF73BFF01210448FEF7F7FA1E2033
:10239000FFF734FFFFF758FF10BD0000000C0140AD
:1023A00010B501210148FEF7DEFA10BD000C014016
:1023B00001B581B000200090694601AA50780870EC
:1023C00010784870BDF800000CBD0146080601F405
:1023D0007F4240EA022001F47F0240EA122040EAF4
:1023E0001160704713B50C464FF6FF730122694622
:1023F0000248FEF763FB00981CBD0000640000204B
:1024000010B5002821D0114B0022001F196803E0ED
:10241000814203D80A4649680029F9D152B11368AC
:10242000841A9C4204D1006818441060104602E0EF
:10243000506000E0186039B102680B1A934203D172
:102440000B681A4402604968416010BD9400002086
:102450002DE9FC476846FFF753FF00283AD19DF865
:102460000200002833D09DF80100FDF749FF074620
:102470000022194BFDF7D0FE0546FDF762FF8146AD
:102480009DF80000FDF737FF82464946FDF76CFED8
:102490000446FDF742FF114908709DF80300FDF75F
:1024A0002FFF074600220C4BFDF7B6FE0546FDF751
:1024B00048FF81469DF80200FDF71DFF8246494610
:1024C000FDF752FE0446FDF728FF0549087000207D
:1024D000BDE8FC870120FBE7000024404500002008
:1024E00044000020024612B102F0070028B9082972
:1024F00001D8002070470120FCE702F00700C0F17E
:102500000800884201D30020F4E70120F2E730B54B
:1025100002460B460021002400250AB9481E30BDA2
:10252000002108E0545C581A401E155C5554581A96
:10253000401E1454491CB1EB530FF3D30020EEE7B7
:102540002DE9F04104460D460026002704B135B9B7
:102550001AA0FFF773F94FF0FF30BDE8F08100F0EB
:1025600097F907462878217888420CD01DA0FFF7FC
:1025700065F9214890F8950320F00100401C1E49A0
:1025800081F895030126D5F80100D4F8011088429E
:102590000CD01AA0FFF752F9174890F8950320F0D5
:1025A0000200801C144981F895030126012E03D1F5
:1025B00000F06EF9164908603046CEE767697A4345
:1025C0006865636B5265706F7274204572726F72CA
:1025D000202C20496C6C6567616C20506172616DC4
:1025E0000A00000076616C75656C65642043686163
:1025F0006E6765640A000000F809002076616C755A
:102600006577656E6475204368616E6765640A006E
:10261000540000202DE9F84305460C4616464FF0BD
:102620000008C14600270020009028788DF800009F
:102630000DB104B136B914A0FFF700F94FF0FF3027
:10264000BDE8F8836846FFF783FD804608F1010086
:1026500007449DF80000C0F3400090B1112122789A
:10266000601C81542078401C2070E95D8DF80210B8
:102670007F1C9DF802200021012001F0F7F9C6F827
:1026800001000020DCE7000067697A446174615052
:102690006F696E74324576656E74204572726F7222
:1026A000202C20496C6C6567616C20506172616DF3
:1026B0000A0000002DE9FC4706460F4690464FF001
:1026C000000900250024002000902A4890F8950376
:1026D0008DF80000641C06B137B927A0FFF7AEF8EB
:1026E0004FF0FF30BDE8FC87224890F8950300F0DA
:1026F000010038B133780DEB04020121284601F0C6
:1027000077F96D1C15B94FF0000908E005F00700D6
:1027100010B94FEAD50902E0012000EBD509B9F163
:10272000010F04D90DEB04004946FFF7F0FE4C44BD
:10273000104890F89503C0F3400068B1D6F8012026
:102740000021012001F098F9C0B28DF805009DF834
:1027500005100DF80410641C0648002180F895133C
:10276000C8F8004069463846D8F80020FDF7D8FC84
:102770000020B7E7F809002067697A446174615066
:102780006F696E7473325265706F727444617461F4
:10279000204572726F72202C20496C6C6567616CE9
:1027A00020506172616D0A0070B5044600F070F847
:1027B0000546002626492046FFF7C2FE012818D10B
:1027C00024A0FFF73BF8224A093A911F2046FFF761
:1027D00071FF38B9254800F29631D0F89C231420B7
:1027E00001F082F821482168C0F8A513217980F80A
:1027F000A9131F48B5FBF0F100FB115020BB1D4889
:102800000068A84220D01CA0FFF718F8FF22012181
:102810000F481038FDF796FC0D4A093A911F2046E3
:10282000FFF748FF38B9114800F29631D0F89C23E1
:10283000142001F059F80D482168C0F8A51321793A
:1028400080F8A9130B4805603046FFF7D9FD70BD2D
:102850009D0D00206368616E6765642C2072657051
:102860006F727420646174610A000000F80900202E
:10287000C027090058000020496E666F3A203630A4
:102880003053207265706F727420646174610A0045
:1028900001480068704700004800002010B5174844
:1028A00090F83102012827D1144890F8300202280C
:1028B0001DDAFFF7EDFF1149D1F84513401AC8287A
:1028C0001AD9FFF7E5FF04460C4890F83032D0F8EB
:1028D000452321460AA0FEF7B1FF00F01FFF07487D
:1028E00090F83002401C054981F8300204E040F2C3
:1028F00019110D48FDF72DFC10BD0000F80900204E
:102900005761726E696E673A67697A50726F746F59
:10291000636F6C526573656E6444617461202564F5
:102920002025642025640A00280C00203EB50446BA
:10293000002524B913A0FEF781FF681E3EBD206864
:102940000090606801909DF80400401CC0B28DF8B2
:1029500004000520FFF72CFDADF8020009216846B0
:1029600000F01CFF8DF808000921684601F02AFDDF
:102970000546002D03DA29460DA0FEF75FFF284625
:10298000DCE700004552523A2067697A50726F7452
:102990006F636F6C436F6D6D6F6E41636B2064612D
:1029A000746120697320656D707479200A000000DD
:1029B0004552523A207561727420777269746520AD
:1029C0006572726F72202564200A0000FEB504460D
:1029D0000E46002524B914A0FEF730FF681EFEBD88
:1029E000684600F003FA12208DF8040060798DF833
:1029F00005000620FFF7DCFCADF802008DF808604A
:102A00000A21684600F0CAFE8DF809000A216846CE
:102A100001F0D8FC0546002D03DA29460DA0FEF78B
:102A20000DFF2846DBE7000067697A50726F746F0C
:102A3000636F6C4572726F72436D64204572726F82
:102A400072202C20496C6C6567616C20506172614A
:102A50006D0A00004552523A2075617274207772F7
:102A6000697465206572726F72202564200A000007
:102A700030B59DB0044600252CB92BA0FEF7DEFE34
:102A8000681E1DB030BD684600F0B0F902208DF818
:102A9000040060798DF805002FA103C9CDE902017A
:102AA00030A103C9CDE9040131A103C9CDE9080171
:102AB00032A103C9CDE90601202233A10AA8FDF7FE
:102AC0002FFB202239A10DF15200FDF729FB002038
:102AD000CDF84A00CDF84E009DF851008DF8510018
:102AE0009DF8510040F002018DF851100020FFF7D1
:102AF0005FFCADF848006F20FFF75AFCADF802000C
:102B00007321684600F04AFE8DF872007321684612
:102B100001F058FC0546002D03DA29462CA0FEF7EB
:102B20008DFE2846ADE7000067697A50726F746FBA
:102B3000636F6C476574446576696365496E666F5B
:102B4000204572726F72202C20496C6C6567616C35
:102B500020506172616D0A003030303030303034D6
:102B600000000000303030303030303200000000E3
:102B7000303330333030303000000000303330310B
:102B80003031303000000000343837323161636654
:102B90003232363634666131393930353361343367
:102BA00033666237353966330000000036633362BE
:102BB00062373131626630633437623061343630C7
:102BC000636631636531353538376538000000009C
:102BD0004552523A2075617274207772697465208B
:102BE0006572726F72202564200A00002DE9FE4F85
:102BF00080460E4617464FF0000B0020029081469B
:102C00008246002534460090B8F1000F01D006B18D
:102C100037B956A0FEF712FE4FF0FF30BDE8FE8F29
:102C2000404601F0ABFA1FFA80FABAF1000F02D168
:102C30004FF0FF30F2E74FF000096AE0012201A9EE
:102C4000404601F0D8FA8346BBF1000F5FD05348ED
:102C50000078FF281FD19DF80400FF281BD15048A1
:102C6000007848B9FF202070607002204D4908802C
:102C700001204B49087041E04A48008804283DDDA6
:102C800048480088A84239D0FF2020706070022098
:102C90004449088032E041480078FF2803D19DF87C
:102CA000040055282AD03E480078012826D19DF8F6
:102CB00004003C49098860543A480088401C39495E
:102CC000088008460088042818DD0094009C60886D
:102CD000FFF76EFB001D85B2B5F5887F01D8042D86
:102CE00007DC00202E4908702E4908802EA0FEF730
:102CF000A5FD2C480088A84200D10CE09DF80400F6
:102D00002649087038480078401C3749087009F196
:102D10000109D14592DB00BF22480088042822DD4A
:102D200020480088A8421ED11E480188204600F095
:102D300035FD02901B480088401E215C02988142AC
:102D40000AD13D800020164908701649088026499E
:102D500008701249087061E7002011490870114994
:102D60000880801E5AE7012058E7000067697A5002
:102D7000726F746F636F6C4765744F6E65506163FB
:102D80006B6574204572726F72202C20496C6C65E3
:102D900067616C20506172616D0A00006000002064
:102DA0005C0000205E0000204552523A74686520A5
:102DB00064617461206C656E677468206973207447
:102DC0006F6F206C6F6E67206F7220746F6F20734F
:102DD0006D616C6C2C2077696C6C206162616E6433
:102DE0006F6E200A000000006100002010B504464C
:102DF0002CB907A0FEF722FD4FF0FF3010BD0020D8
:102E000020606060FF20207060700020F6E7000006
:102E10004552523A2067697A50726F746F636F6CD3
:102E200048656164496E69742068656164206973EE
:102E300020656D707479200A000000002DE9F04FC4
:102E4000ADF50B7D06468B461746994600208A90C5
:102E500082468046002501ACBBF1000F07D132A0AD
:102E6000FEF7ECFC681E0DF50B7DBDE8F08FB9F1A7
:102E7000010F06D196F8088008F10600384485B2A3
:102E800001E0781D85B22B46424639462CA0FEF75C
:102E9000D5FCFF2004F8010B04F8010B281204F8FC
:102EA000010B04F8015B3079401C04F8010B7079C8
:102EB00004F8010B002004F8010B04F8019B4FF00B
:102EC000080AB9F1010F0DD104F8018B0AF1010ACA
:102ED00001A901EB0A00424606F10901FDF720F9BC
:102EE000C244444437B101A901EB0A003A465946AD
:102EF000FDF716F9291D01A800F050FC0146E81C59
:102F000001AA1154291D01A801F05CFA8A908A983F
:102F1000002806DA14A08A99FEF790FC6FF00100F1
:102F2000A1E700209FE700005B4552525D2020642E
:102F3000617461204973204E756C6C200A0000009A
:102F40006C656E203D202564202C20734469644C00
:102F5000656E203D202564202C646174615F6C6582
:102F60006E203D2025640A007561727420777269B5
:102F70007465206572726F72202564200A0000005B
:102F80002DE9F04780460C4617461D46089E94F8EA
:102F900000900CB105B136B934A0FEF74FFC4FF0EC
:102FA000FF30BDE8F087B8F1000F5CD113213B483A
:102FB000FDF7CFF8B9F1050F36D0B9F1110F03D0F5
:102FC000B9F1120F4DD10FE035A0FEF737FC334AAF
:102FD00057323249601CFFF71DFB01203949087048
:102FE0000025002030603DE037A0FEF727FC354883
:102FF000617880F8951300F56772911F00F2A53093
:10300000FFF758FB60B92F4800F29631D0F89C23A7
:10301000681CFDF785F8132028700420306002E05A
:103020004FF0FF30BDE71DE07A1E611C2F48FDF711
:1030300077F8781E2349C1F824021021214890F81E
:10304000492300F24A3081541E4890F84903401C3D
:103050001C4981F8490303200870002500203060D6
:1030600000E000BF00BF00209BE7000067697A50C6
:10307000726F746F636F6C49737375656450726FB0
:1030800063657373204572726F72202C20496C6CDB
:103090006567616C20506172616D0A00410D00200E
:1030A000414354494F4E5F454C4F4E474154455F55
:1030B000434F4E54524F4C5F444556494345200AB6
:1030C00000000000F8090020414354494F4E5F457D
:1030D0004C4F4E474154455F524541445F4445562D
:1030E0005F535441545553200A0000000A0B00203E
:1030F00070B5044625462CB90EA0FEF79FFB4FF095
:10310000FF3070BD412205F108010E48FDF708F8B7
:103110000F210D4890F8822300F2833081540A4831
:1031200090F88203401C084981F88203052008704A
:103130000020E6E74E545020697320656D70747965
:10314000200A0000B00D0020F809002010B5044648
:103150002CB9D2A0FEF772FB4FF0FF3010BD2089D2
:10316000FFF726F92081D9480078C0F38000217A42
:10317000C1F3800188425AD0207AC0F38000002831
:103180002BD0207A00F0010080B10021D04890F8C7
:103190005C2300F25D308154CD4890F85C03401C04
:1031A000CB4981F85C03CBA0FEF748FB207AC0F343
:1031B000400000283BD00121C54890F85C2300F274
:1031C0005D308154C24890F85C03401CC04981F8CE
:1031D0005C03C8A0FEF732FB29E0207A00F0010072
:1031E00080B10021BA4890F85C2300F25D30815430
:1031F000B74890F85C03401CB54981F85C03B5A062
:10320000FEF71CFB207AC0F3400080B10221B048D9
:1032100090F85C2300F25D308154AD4890F85C0377
:10322000401CAB4981F85C03B9A0FEF707FBA74837
:103230000078C0F3C000217AC1F3C00188422ED0CB
:10324000207AC108A148007861F3C3009F49087043
:10325000207AC0F3C00088B103219D4890F85C2318
:1032600000F25D3081549A4890F85C03401C984904
:1032700081F85C03ADA0FEF7E1FA10E00421944868
:1032800090F85C2300F25D308154914890F85C0323
:10329000401C8F4981F85C03ACA0FEF7CFFA8B4845
:1032A0000078C0F30010217AC1F3001188422ED0BB
:1032B000207A01098548007861F304108349087079
:1032C000207AC0F3001088B10521814890F85C2372
:1032D00000F25D3081547E4890F85C03401C7C49CC
:1032E00081F85C03A1A0FEF7A9FA10E00621784856
:1032F00090F85C2300F25D308154754890F85C03CF
:10330000401C734981F85C03A0A0FEF797FA6F4850
:103310000078C0F34010217AC1F3401188422ED0CA
:10332000207A41096948007861F3451067490870BF
:10333000207AC0F3401088B10721654890F85C23DB
:1033400000F25D308154624890F85C03401C604993
:1033500081F85C0396A0FEF771FA10E008215C4842
:1033600090F85C2300F25D308154594890F85C037A
:10337000401C574981F85C0394A0FEF75FFA53485C
:103380004078C0F3C001607AC0F3C00081422ED003
:10339000607AC1084D48407861F3C3004B494870DA
:1033A000607AC0F3C00088B10B21494890F85C23D3
:1033B00000F25D308154464890F85C03401C44495B
:1033C00081F85C0389A0FEF739FA10E00C2140482F
:1033D00090F85C2300F25D3081543D4890F85C0326
:1033E000401C3B4981F85C0387A0FEF727FA374869
:1033F0004078C0F30011607AC0F3001081422ED0F3
:10340000607A01093148407861F304102F4948700F
:10341000607AC0F3001088B109212D4890F85C2330
:1034200000F25D3081542A4890F85C03401C284922
:1034300081F85C037CA0FEF701FA10E00A21244821
:1034400090F85C2300F25D308154214890F85C03D1
:10345000401C1F4981F85C037AA0FEF7EFF90D21AB
:103460001B4890F85C2300F25D308154184890F8B6
:103470005C03401C164981F85C03607A00F0070089
:1034800081F8AA03084690F8AA1375A0FEF7D6F9AA
:1034900002200F490870002060E6000067697A503A
:1034A000726F746F636F6C4D6F64756C655374618C
:1034B000747573204572726F72202C20496C6C6594
:1034C00067616C20506172616D0A0000620000202B
:1034D000F80900204F6E426F617264696E673A208E
:1034E000536F66744150206F7220576562206D6F74
:1034F00064650A004F6E426F617264696E673A20BC
:103500004169724C696E6B206D6F64650A00000042
:103510004F6E426F617264696E673A2053746174D2
:10352000696F6E206D6F64650A0000005769466917
:10353000207374617475733A20696E2062696E64D9
:10354000696E67206D6F64650A00000057694669FF
:10355000207374617475733A206F75742062696E9C
:1035600064696E67206D6F64650A0000576946697B
:10357000207374617475733A20636F6E6E65637443
:10358000656420726F757465720A00005769466938
:10359000207374617475733A20646973636F6E6E1F
:1035A000656374656420726F757465720A0000004B
:1035B00057694669207374617475733A20636F6E3E
:1035C0006E6563746564206D326D0A0057694669E3
:1035D000207374617475733A20646973636F6E6EDF
:1035E0006563746564206D326D0A00005769466931
:1035F000207374617475733A2061707020636F6E0C
:103600006E6563740A00000057694669207374612F
:103610007475733A206E6F2061707020636F6E6EE8
:103620006563740A0000000057694669207374617D
:103630007475733A20696E2074657374206D6F64BD
:10364000650A000057694669207374617475733A9E
:10365000206F75742074657374206D6F64650A0043
:1036600052535349206973202564200A000000004A
:1036700070B5044625462CB91AA0FEF7DFF84FF0C6
:10368000FF3070BD1C48A968C162A9890186A97B69
:1036900080F83210A0F56070D5F80F10C0F8B413A0
:1036A0000146B1F8AC03FEF783FE1449A1F8AC0360
:1036B000D1F8B403FEF789FE1049C1F8B4030E2116
:1036C0000E4890F86F2300F55C7081540B4890F819
:1036D0006F03401C094981F86F0304200870002023
:1036E000CFE700004552523A204E545020697320D3
:1036F000656D707479200A00780D0020F8090020AB
:1037000010B5FFF7C5F8044600BFFFF7C1F8001B6E
:10371000B0F5167FF9D900F029FD10BD10B50024D1
:103720000F4890F8310200B910BD0EA0FEF786F8E0
:103730000B48B0F8431300F2322000F043FE044679
:103740000748B0F84303A04202D00EA0FEF776F877
:10375000FFF79EF80249C1F8450300BFE4E7000007
:10376000F80900205761726E696E673A2074696DBE
:10377000656F75742C20726573656E642064617466
:1037800061200A004552523A20726573656E6420CA
:1037900064617461206572726F720A0010B502462E
:1037A0000024002302B109B9002010BD022303E068
:1037B000D05C2044C4B25B1C481E9842F8D8204616
:1037C000F3E7000070B504460D462CB90EA0FEF7D5
:1037D00035F84FF0FF3070BD40F219111048FCF77A
:1037E000B8FC2A4621460E48801CFCF799FC0D487F
:1037F000A0F84353012180F83112FFF749F8094935
:10380000C1F845030020E6E74552523A206461744E
:103810006120697320656D707479200A00000000D2
:10382000280C0020F809002070B504460A4D2CB978
:103830000AA0FEF703F84FF0FF3070BD2879401C56
:103840002179884205D140F219110348801EFCF706
:1038500080FC0020F1E700002A0C00204552523A7B
:10386000206461746120697320656D707479200A29
:103870000000000070B504460D46002624B90AA0D9
:10388000FDF7DCFF701E70BD2A4621460E4800F091
:1038900020FD0646AE4205D00CA0FDF7CFFF4FF04D
:1038A000FF30F0E73046EEE74552523A2067697A3A
:1038B0005075744461746120627566206973206577
:1038C0006D707479200A0000F40D00204552523AC0
:1038D000204661696C656420746F2072625772695A
:1038E0007465200A000000002DE9F043C5B00646CB
:1038F0000F4690464FF000096C4608F1060085B26D
:103900003FB925A0FDF79AFF4FF0FF3045B0BDE865
:10391000F083FF2004F8010B04F8010B281204F8CF
:10392000010B04F8015B052004F8010B244890F812
:103930002812D0F82802401C214AC2F8280204F8B4
:10394000011B002004F8010B04F8010B04F8016BC3
:10395000424639460DF10900FCF7E2FB291D684695
:10396000FFF71CFF0146E81C0DF80010291D6846F2
:1039700000F028FD8146B9F1000F06DA494611A092
:10398000FDF75CFF6FF00100C0E7291D6846FFF7F7
:1039900019FF0020BAE7000067697A5265706F72FC
:1039A0007444617461204572726F72202C20496CDE
:1039B0006C6567616C20506172616D0A00000000E7
:1039C000F80900204552523A2075617274207772CE
:1039D000697465206572726F72202564200A000088
:1039E00002480068401C01490860704748000020F8
:1039F0002DE9F0470546884614461E464FF000095B
:103A0000CA460027002314B9581EBDE8F087EB080A
:103A100041462846FEF766FD07463FB9E05C05F0E3
:103A2000070106FA01F10843E0541DE0012F1BD104
:103A3000F0B205F00701C1F1080140FA01F905F003
:103A40000700C0F10801FF20084100EA060A581CDF
:103A5000205C40EA0900591C6054E05C05F0070155
:103A60000AFA01F10843E0540020CEE710B50346FE
:103A7000002002FB031010BD10B503460020541AAD
:103A8000B4FBF3F010BD00002DE9FF5F06460D46C4
:103A900093464FF000082F46A9462C46AA4606B189
:103AA00025B94FF0FF3004B0BDE8F09F4FF000089B
:103AB0004DE0701C10F80800122842D2DFE800F038
:103AC000151617414118191A1B414141411C263551
:103AD0002209D7F801002049C1F801000846D0F8B2
:103AE00001101EA0FDF7AAFE2CE02BE02AE029E041
:103AF00028E027E026E025E099F800101CA0FDF75B
:103B00009DFE1FE01DA0FDF799FE1BE0A1796279E3
:103B10002379A068CDE90032CDE90210E378A278DC
:103B200021881BA0FDF78AFE0CE024A0FDF786FE8D
:103B300027A0FDF783FE9AF8001029A0FDF77EFE6E
:103B400000E000BF00BF08F1010000F0FF0830787E
:103B50004045AEDC0020A6E74D0000204576743AD3
:103B60004556454E545F77656E64752025640A009E
:103B7000525353492025640A000000005452414E1C
:103B800053504152454E545F44415441200A000075
:103B9000574946495F4E5450203A205B25642D25F5
:103BA000642D256420253032643A253032643A256C
:103BB0003032645D5B25645D200A00004D4F445542
:103BC0004C4520494E464F202E2E2E0A0000000064
:103BD000574946204D4F44554C45202E2E2E0A0065
:103BE0006D6F64756C6554797065203A205B25644F
:103BF0005D200A002DE9F047ADF50C7D0646002753
:103C000000250020029001900024814680463EB9A4
:103C100090A0FDF713FE601E0DF50C7DBDE8F0874A
:103C2000FEF73CFE02AA95499548FEF7DFFF0746DE
:103C3000002F70D193A0FDF701FEFEF729FE82460A
:103C4000BDF80820514694A0FDF7F8FD002506E0D8
:103C50008A48415D95A0FDF7F1FD681C85B2BDF86D
:103C600008008542F4DB93A0FDF7E8FD834C207942
:103C70000F2851D00ADC0E2874D2DFE800F073164A
:103C8000731A7373443973734573463D182854D0BF
:103C900006DC112849D0142848D0162862D135E016
:103CA000222854D02A285DD131E02046FEF7E0FEDC
:103CB00060E0E279A17980A0FDF7C0FD01A8009045
:103CC00008F10900BDF808301A1A6C48083000EBFA
:103CD000080103AB4846FFF753F940B9E37903A95C
:103CE0002046019AFFF7AAF877A0FDF7A7FD41E06B
:103CF0002046FEF71BFE3DE02046FEF717FE20465D
:103D0000FFF724FA36E000BF00BF00BF00BF204627
:103D1000FFF78AFD2EE02EE02046FEF707FE6DA09D
:103D2000FDF78CFDFFF7ECFC24E023E02046FFF7D5
:103D30007BFD6DA0FDF782FD1CE02046FFF774FDC2
:103D40002046FFF795FC70A0FDF778FD12E02046B5
:103D5000FFF76AFD2046FFF7CBF971A0FDF76EFD76
:103D600008E0FFE702212046FEF730FE73A0FDF7D2
:103D700065FD00BF0DE017F1020F0AD13F4C012194
:103D80002046FEF723FE73A0FDF758FD6FF00100FB
:103D900042E73A48401E0078062854D2DFE800F097
:103DA00053031324314200203449491E0870052270
:103DB00001F56871A1F15700FFF766FE13216B480A
:103DC000FCF7C7F940E000202C49491E0870012289
:103DD00001F2AA31A1F14E00FFF756FE132163480C
:103DE0001330FCF7B6F92FE000202449491E087073
:103DF000084600F58971D0F824225C48FFF744FE9C
:103E000022E000201D49491E08700C2201F56B714B
:103E1000A1F13D00FFF738FE132154482630FCF78E
:103E200098F911E000201549491E0870412201F55A
:103E30006E71A1F13600FFF727FE41214B48393062
:103E4000FCF787F900E000BF00BF3046FEF7ACFC8E
:103E50000020E1E647697A7769747348616E646CA3
:103E600065204572726F72202C20496C6C65676109
:103E70006C20506172616D0A00000000F909002099
:103E8000F40D0020476574204F6E65205061636B10
:103E90006574210A0000000057694669324D435598
:103EA0005B2534643A2534645D3A2000253032784D
:103EB000200000000A000000666C61672025782061
:103EC0002578200A0000000041636B446174612082
:103ED0003A200A007265706F72743A4D4355207231
:103EE00065626F6F74210A0041636B2050524F442A
:103EF000554354494F4E5F4D4F444520737563639E
:103F0000657373200A00000041636B204745545FCE
:103F10005554542073756363657373200A00000061
:103F200041636B204745545F4D6F64756C6520732A
:103F3000756363657373200A000000004552523AAE
:103F400020636D6420636F6465206572726F7221F7
:103F50000A0000004552523A20636865636B207383
:103F6000756D206572726F72210A0000410D00208C
:103F700010B540F222200A4908600A48C860084685
:103F800000F02FF918B908A0FDF758FC02E00BA0CB
:103F9000FDF754FC4FF47F710D48FCF7DAF810BDC3
:103FA000F40D0020040E0020726243726561746596
:103FB0002053756363657373200A00007262437255
:103FC00065617465204661696C64200A0000000028
:103FD000F809002070470000FDF76EF9FEF7C6F8FB
:103FE0004FF4A060FCF784FEFCF7D0FE4FF4E13004
:103FF00000F044FAFDF7BEF8FCF7A6FDFCF720FE42
:10400000FCF7BEFC75E03B48FFF7F4FDFCF7CEFD86
:10401000394908700846007801281BD137480068E4
:1040200008B9012000E00020344908603448D0F885
:10403000B40108B9012000E000203249086032488C
:10404000D0F8A40118B901202A49087002E0002024
:104050002849087027480078012808D125490870A8
:104060000020264908602649C1F8B40108E0002074
:10407000204908700120214908602149C1F8B40194
:1040800022480068B0F57A7F33D900201F490860C4
:10409000FEF7DEF963201749C1F801001C480378D8
:1040A0001CA200210846FCF7A0FF1D4803781DA2B2
:1040B00002210020FCF799FF1048006828B91CA2D3
:1040C00004210020FCF791FF04E01CA20421002041
:1040D000FCF78BFF1C480078012805D11BA20621A4
:1040E0000020FCF782FF04E01CA206210020FCF760
:1040F0007CFF88E74D00002000000020A4812142C1
:1041000000002242B40122420080214240000020EF
:104110004400002054656D703A256443202000005F
:104120004500002048756D693A256425252020004A
:10413000506F7765723A4F4E20000000506F7765E0
:10414000723A4F4646200000010000205749464978
:10415000204F4B20202020200000000057494649D6
:1041600020496E69742E2E2E0000000010B501202B
:1041700080F3138800BFFCF719FC10BD00B50246A0
:1041800012B94FF0FF3000BD90685168884201D1EC
:104190000020F8E750689168884203D2906851681F
:1041A000401AF0E7104600F015F851689368C91AF4
:1041B000C1EB4000E7E730B5044614B94FF0FF30DB
:1041C00030BD204600F006F805462046FFF7D6FF32
:1041D000281AF5E7014611B94FF0FF30704708681B
:1041E000FCE7014611B94FF0FF30704700204860EE
:1041F000886000BFF9E72DE9F04104460F461646F6
:10420000002504B11FB94FF0FF30BDE8F0816068B0
:10421000A16888421AD22046FFF7B0FFB04201D30E
:10422000304602E02046FFF7A9FF0546204600F091
:1042300041F8E16800EB01082A4641463846FBF7A1
:104240006FFF6068284460602846DEE72046FFF77D
:10425000C1FF6168C1EB4000B04210D9354620462D
:1042600000F028F8E16800EB01082A46414638468C
:10427000FBF756FF6068284460602846C5E7204683
:10428000FFF7A8FF6168C1EB4005204600F012F877
:10429000E16800EB01082A4641463846FBF740FF3B
:1042A00000206060721B79192046FFF7A4FF0544C7
:1042B0002846AAE7014611B94FF0FF307047486819
:1042C0000A68904203D348680A68801AF6E748688B
:1042D000F4E72DE9F04104460F461546002604B1E7
:1042E0001FB94FF0FF30BDE8F0812046FFF763FFB4
:1042F000A84202D26FF00100F5E7A0686168884229
:1043000034D32046FFF766FFA168C1EB4006AE42FA
:1043100018D3204600F03AF8E16800EB01082A467D
:1043200039464046FBF7FCFEA0682844A0602046C2
:10433000FFF750FF4000A168884201D80020A0602C
:104340002846D0E7204600F021F8E16800EB01089C
:10435000324639464046FBF7E3FE0020A060AA1B28
:10436000B9192046FFF7B5FF3044BCE7204600F0FE
:104370000DF8E16800EB01082A4639464046FBF794
:10438000CFFEA0682844A0602846ACE7014611B9DA
:104390004FF0FF30704788680A68904203D38868FE
:1043A0000A68801AF6E78868F4E7000010B5012271
:1043B00002490348FCF756FB10BD00004C000020EA
:1043C00078000020F8B505460E4622A0006800904F
:1043D00000240DB9601EF8BD002419E0291901223E
:1043E0001D48FCF796FB00BF1B48C0682028FBD186
:1043F000022C0CD3285DFF2809D1012269461648FA
:10440000FCF787FB00BF1448C0682028FBD1641C60
:10441000B442E3D3FEF73CFA0746324639460FA0D2
:10442000FDF70CFA00240DE0295D11A0FDF706FA56
:10443000022C06D3285DFF2803D155210CA0FDF7DF
:10444000FDF9641CB442EFD30BA0FDF7F7F9304639
:10445000C1E7000055000000780000204D435532B0
:10446000576946695B2534643A2534645D3A200017
:1044700025303278200000000A00000010B586B018
:104480000446012144F20400FCF7EAFD4FF40070F9
:10449000ADF8140003208DF8160018208DF81700D1
:1044A00005A91C48FCF7D4F94FF48060ADF814005E
:1044B00048208DF8170005A91648FCF7C9F92520F2
:1044C0008DF8000000208DF801008DF80200012019
:1044D0008DF803006846FCF7D3FB01940020ADF88B
:1044E0000800ADF80A00ADF80C00ADF810000C2083
:1044F000ADF80E0001A90848FDF7D2F8012240F2FC
:1045000025510548FDF7A7F801210348FDF712F8EA
:1045100006B010BD000801400038014010B586B05B
:10452000044601210420FCF79BFD01214804FCF70F
:1045300077FD2248FDF70AF80420ADF810000320AB
:104540008DF8120018208DF8130004A91C48FCF700
:104550007FF90820ADF8100048208DF8130004A959
:104560001748FCF775F900940020ADF80400ADF889
:104570000600ADF80800ADF80C000C20ADF80A00FC
:1045800069460E48FDF78CF801210C48FCF7D2FF74
:10459000012240F225510948FDF75DF826208DF8EB
:1045A000140001208DF815008DF816008DF8170005
:1045B00005A8FCF765FB06B010BD000000440040F4
:1045C000000801400000000000000000002F000073
:1045D00000000700070000147F147F1400242A7FC6
:1045E0002A12006264081323003649552250000045
:1045F0000503000000001C224100000041221C00B5
:104600000014083E08140008083E0808000000A036
:104610006000000808080808000060600000002032
:1046200010080402003E5149453E0000427F400010
:10463000004261514946002141454B310018141296
:104640007F10002745454539003C4A494930000163
:104650007109050300364949493600064949291EB2
:104660000000363600000000563600000008142214
:104670004100001414141414000041221408000214
:104680000151090600324959513E007C1211127C39
:10469000007F49494936003E41414122007F414166
:1046A000221C007F49494941007F09090901003E58
:1046B0004149497A007F0808087F0000417F410096
:1046C000002040413F01007F08142241007F40400C
:1046D0004040007F020C027F007F0408107F003EF4
:1046E0004141413E007F09090906003E4151215EDA
:1046F000007F091929460046494949310001017FD7
:104700000101003F4040403F001F2040201F003F6C
:104710004038403F0063140814630007087008071E
:1047200000615149454300007F41410000552A5531
:104730002A55000041417F000004020102040040AC
:1047400040404040000001020400002054545478CE
:10475000007F4844443800384444442000384444EE
:10476000487F00385454541800087E09010200188C
:10477000A4A4A47C007F080404780000447D4000C9
:10478000004080847D00007F102844000000417FAD
:104790004000007C04180478007C08040478003889
:1047A0004444443800FC242424180018242418FC11
:1047B000007C0804040800485454542000043F447A
:1047C0004020003C4040207C001C2040201C003C3D
:1047D0004030403C004428102844001CA0A0A07C8D
:1047E000004464544C4414141414141400000000C5
:1047F000000000000000000000000000000000F8C1
:1048000000000000000000333000000000100C0623
:10481000100C0600000000000000000040C07840BE
:10482000C0784000043F04043F040400007088FC8A
:1048300008300000001820FF211E0000F008F000E2
:10484000E018000000211C031E211E0000F0088853
:10485000700000001E2123241927211010160E00BD
:10486000000000000000000000000000000000E068
:10487000180402000000000718204000000204187D
:10488000E00000000040201807000000404080F0D9
:10489000804040000202010F01020200000000F00F
:1048A000000000000101011F0101010000000000E3
:1048B0000000000080B07000000000000000000058
:1048C00000000000000101010101010100000000E1
:1048D0000000000000303000000000000000000078
:1048E00080601804006018060100000000E0100855
:1048F0000810E000000F102020100F00001010F82A
:10490000000000000020203F202000000070080868
:1049100008887000003028242221300000300888E8
:10492000884830000018202020110E000000C02010
:1049300010F8000000070424243F240000F8088831
:10494000880808000019212020110E0000E01088BE
:1049500088180000000F112020110E0000380808F0
:10496000C83808000000003F000000000070880800
:1049700008887000001C222121221C0000E0100881
:104980000810E0000000312222110F00000000C0DA
:10499000C000000000000030300000000000008077
:1049A0000000000000008060000000000000804067
:1049B0002010080000010204081020004040404080
:1049C00040404000040404040404040000081020D3
:1049D0004080000000201008040201000070480818
:1049E0000808F0000000003036010000C030C82880
:1049F000E810E0000718272423140B000000C0383B
:104A0000E0000000203C23020227382008F88888B4
:104A100088700000203F202020110E00C0300808C0
:104A200008083800071820202010080008F8080897
:104A30000810E000203F202020100F0008F8888890
:104A4000E8081000203F20202320180008F888885C
:104A5000E8081000203F200003000000C0300808D4
:104A60000838000007182020221E020008F808005D
:104A70000008F808203F210101213F20000808F824
:104A8000080800000020203F202000000000080847
:104A9000F8080800C08080807F00000008F888C007
:104AA00028180800203F20012638200008F80800B8
:104AB00000000000203F20202020300008F8F800EF
:104AC000F8F80800203F003F003F200008F830C001
:104AD0000008F808203F200007183F00E0100808F1
:104AE0000810E0000F10202020100F0008F8080820
:104AF0000808F000203F210101010000E010080833
:104B00000810E0000F18242438504F0008F8888857
:104B100088887000203F2000030C30200070880837
:104B2000080838000038202121221C00180808F845
:104B3000080818000000203F2000000008F80800C6
:104B40000008F808001F202020201F000878880097
:104B500000C83808000007380E010000F80800F807
:104B60000008F800033C0700073C030008186880B1
:104B70008068180820302C03032C30200838C80027
:104B8000C83808000000203F200000001008080876
:104B9000C83808002038262120201800000000FE18
:104BA000020202000000007F40404000000C30C0C4
:104BB00000000000000000010638C00000020202F0
:104BC000FE000000004040407F00000000000402A2
:104BD00002020400000000000000000000000000CD
:104BE00000000000808080808080808000020204BD
:104BF00000000000000000000000000000008080B5
:104C0000808000000019242222223F2008F8008022
:104C100080000000003F112020110E0000000080E5
:104C200080800000000E1120202011000000008074
:104C30008088F800000E112020103F2000008080A6
:104C400080800000001F222222221300008080F0BA
:104C5000888888180020203F2020000000008080E5
:104C600080808000006B94949493600008F800802A
:104C700080800000203F210000203F200080989885
:104C8000000000000020203F2020000000000080E5
:104C90009898000000C08080807F000008F8000025
:104CA00080808000203F24022D302000000808F87A
:104CB000000000000020203F202000008080808035
:104CC00080808000203F20003F20003F80800080C7
:104CD00080800000203F210000203F2000008080D5
:104CE00080800000001F202020201F008080008086
:104CF0008000000080FFA12020110E000000008035
:104D000080808000000E112020A0FF808080800025
:104D10008080800020203F21200001000000808052
:104D2000808080000033242424241900008080E047
:104D3000808000000000001F202000008080000014
:104D400000808000001F202020103F2080808000F5
:104D50000080808000010E30080601008080008005
:104D6000008080800F300C030C300F00008080002A
:104D7000808080000020312E0E3120008080800055
:104D80000080808080818E70180601000080808005
:104D9000808080000021302C2221300000000000A3
:104DA000807C020200000000003F40400000000044
:104DB000FF00000000000000FF0000000002027C75
:104DC000800000000040403F00000000000601019C
:104DD000020204040000000000000000FC4D000876
:104DE000000000209800000090180008944E000871
:104DF0009800002090130000A01800080000000098
:104E000000A24A04000000000000000001020304A8
:104E10000607080900000000010203040102030460
:104E20000607080902040608000000000000000050
:104E30000000000000000000000000000000000072
:104E40000000000000000000000000000000000062
:104E50000000000000000000000000000000000052
:104E600000380140000000000000000020000000A9
:104E7000200000000044004000000000000000008E
:104E8000200000002000000000040040000000009E
:044E9000000000001E
:0400000508000105E9
:00000001FF
