:020000040800F2
:10000000B00D002001010008150C0008FD0A0008D1
:10001000110C00086B080008CF1600080000000053
:10002000000000000000000000000000FD100008BB
:100030006F08000800000000B90F00081112000846
:100040001701000817010008170100081701000830
:100050001701000817010008170100081701000820
:100060001701000817010008170100081701000810
:100070001701000817010008170100081701000800
:1000800017010008170100081701000817010008F0
:1000900017010008170100081701000817010008E0
:1000A00017010008170100081701000817010008D0
:1000B00075120008F5120008170100081701000862
:1000C00017010008170100081701000817010008B0
:1000D000170100082514000865140008D51400084D
:1000E000170100081701000817010008DFF80CD0FD
:1000F00000F078FB0048004755240008B00D0020B0
:1001000005480047FEE7FEE7FEE7FEE7FEE7FEE7FD
:10011000FEE7FEE7FEE7FEE7ED000008D2B201E0F1
:1001200000F8012B491EFBD270470022F6E710B5FC
:1001300013460A4604461946FFF7F0FF204610BD55
:1001400030B505462A460B4612F8010B13F8014B51
:1001500008B1A042F8D01CB1002802D06D1CF1E714
:10016000284630BDF0B480EA0102D40F4200B2EB61
:10017000410F02D20246084611464A0042D0C30D42
:10018000DDB2C1F3C752AD1A202D35DAC1F3160125
:1001900041F4000204B15242C5F1200602FA06F110
:1001A0002A411044B3EBD05F23D0C4B1012DA0EBA2
:1001B000C35009DCF0BC4FF0004202EAC352DBB28C
:1001C00000F5000000F03AB9400000F1807000EB4B
:1001D000C350A0F1807040EAD170490009E049089D
:1001E00041EAC071A0EBC35000F50000400800EBED
:1001F000C350F0BC00F019B96142012202EB410189
:10020000001BF6E7F0BC704781F00041AAE780F0E0
:100210000040A7E72DE9F04D81EA030404F0004B0C
:1002200021F0004514464FF0000A23F0004150EA47
:10023000050220D054EA01021DD0C5F30A57024638
:10024000C5F31303C1F31300C1F30A5640F480153C
:1002500043F48013A7EB0608101BD64608F2FD38BE
:1002600073EB050002D308F1010801E092185B412D
:10027000B8F1000F03DA00200146BDE8F08D002040
:100280004FF48011064684460EE0171B73EB0507FA
:1002900005D3121B63EB050306434CEA010C490826
:1002A0004FEA300092185B4150EA0107EDD152EA63
:1002B000030012D082EA040083EA0501084305D056
:1002C000101BAB4106D20122002306E000224FF0B2
:1002D000004302E06FF0010253101AEB06004CEBF2
:1002E000085110EB0A0041EB0B01BDE8F04D00F0A6
:1002F000D3B896230022114600F0A0B80EB540F204
:10030000334102910021CDE900110A460B4600F06D
:10031000D2F803B000BD00F0004230F000400AD037
:10032000C10D01F56071C0F3160042EA0151C20827
:1003300040071143704700200146704701F0004319
:1003400030B421F0004150EA010206D00A0DA2F5B6
:100350006072C1F31301002A02DC30BC0020704738
:10036000440F44EAC104C100E01830BC00EBC250A5
:1003700000F05BB8002801DBC0F10040002901DB80
:10038000C1F1004181427047002801DBC0F100400B
:10039000002901DBC1F100418842704730B50B46AE
:1003A000014600202022012409E021FA02F59D42A5
:1003B00005D303FA02F5491B04FA02F52844151E79
:1003C000A2F10102F1DC30BD2DE9F05F054600200D
:1003D00092469B4688460646814640241BE02846B6
:1003E00041464746224600F01EFA53465A46C01A76
:1003F000914110D311461846224600F005FA2D1AF5
:1004000067EB01084F4622460120002100F0FCF96D
:1004100017EB00094E41201EA4F10104DFDC484621
:1004200031462A464346BDE8F09F0029A8BF7047E1
:10043000401C490008BF20F00100704710B4B0FA1A
:1004400080FC00FA0CF050EA010404BF10BC7047B5
:1004500049B1CCF1200421FA04F411FA0CF118BFCF
:10046000012121430843A3EB0C01CB1D4FEA00619E
:100470004FEA102042BF002010BC704700EBC35071
:1004800010440029A4BF10BC7047401C490008BF9D
:1004900020F0010010BC704710B5141E73F1000469
:1004A00008DA401C41F1000192185B411A4301D166
:1004B00020F0010010BD2DE9F04D92469B4611B190
:1004C000B1FA81F202E0B0FA80F22032904600F0F8
:1004D0009BF904460F4640EA0A0041EA0B015346E5
:1004E0005A46084313D0114653EA010019D0C8F107
:1004F0004002504600F097F905460E4650465946D0
:10050000424600F081F9084305D0012004E020466E
:100510003946BDE8F08D0020054346EAE0762C43DD
:1005200037430A986305E40AA0EB08000022FD0A9D
:1005300044EA47540A3002D500200146E9E70105A4
:1005400010196941DDE9084500196941BDE8F04D20
:10055000A2E72DE9FE4F804681EA0300C00F0C465A
:10056000009021F0004123F00045B8EB0200A941C2
:1005700005D24046214690461C460B46024623F0D3
:100580000040104347D0270DC7F30A00C3F30A51B8
:100590000290401A019040286BDAC3F3130040F434
:1005A000801B0098924620B10023D2EB030A63EB34
:1005B0000B0B01985946C0F14002504600F024F957
:1005C00006460D4650465946019A00F03CF910EB9C
:1005D00008006141002487EA115284EAE7731A4354
:1005E00040D0009A62B3019A012A4FEA075215DC03
:1005F000001B61EB02014FF0004202EA0752CDE915
:100600000042001C41F5801132462B46FFF753FF94
:1006100003B0BDE8F08F40462146F9E7001B61EBCF
:100620000201001C41F5801300185B412018A2F55F
:10063000001747EB030140EAD570B6196D4111E090
:100640006D084FEA360645EAC0754FEA0752001BAF
:1006500061EB0201001C41F5801149084FEA3000AE
:100660000019514132462B4603B0BDE8F04FFFF769
:1006700013BF0098012240000023D0EB020263EB7D
:10068000E073009821464FEAE074B8EB000061EB9C
:100690000401E9E783F000435BE781F0004158E79C
:1006A0002DE9FE4F81EA030404F0004421F00041EB
:1006B00000944FF0000B23F0004350EA01045ED099
:1006C00052EA03045BD0C3F30A54C1F30A552C4425
:1006D000A4F2F3340194A0FB0254C1F3130141F4DA
:1006E0008011C3F3130343F4801301FB024400FBA6
:1006F000034E840A970A44EA815447EA8357A4FBCD
:10070000076802958D0A05FB07854FEA932C04FBC9
:100710000C542705029D4FEA065847EA1637B5EBF9
:1007200008056EEB070C870E920E47EA811742EA26
:100730008312A7FB0201B6EB0B0164EB00042B0D47
:1007400043EA0C335E1844EB1C50DA465146E7FB93
:100750000201C5F313044FEA0B3343EA14534FEA83
:100760000432019C43EA0603A4F10C040294009CA9
:10077000CDE900B4FFF79FFE03B0BDE8F08F002085
:100780000146F9E7C1F30A52C1F3130140F2FF3306
:1007900041F480119A4202DA00200146704740F28B
:1007A00033439A42A2F2334202DC524200F03BB899
:1007B00000F02AB830B5041E71F1000404DB4FF0DC
:1007C0000044404264EB0101141E73F1000405DB98
:1007D0001C464FF00043524263EB0403994208BFAA
:1007E000904230BD064C074D06E0E06840F0010342
:1007F00094E8070098471034AC42F6D3FFF77AFC30
:100800009C300008BC300008202A04DB203A00FAA3
:1008100002F1002070479140C2F1200320FA03F357
:10082000194390407047202A04DB203A21FA02F055
:100830000021704721FA02F3D040C2F1200291401A
:10084000084319467047202A06DBCB17203A41FAA5
:1008500002F043EAE07306E041FA02F3D040C2F14D
:100860002002914008431946704700BFFEE77047D9
:1008700010B526A20021084600F085FB27A12B48D1
:1008800000F027FF4FF47A7001F088FC00F006FAC0
:1008900027A20021084600F076FB29A1234800F09A
:1008A00018FF4FF47A7001F079FC00F0F7F92DA2EF
:1008B0000021084600F067FB2EA11C4800F009FF4C
:1008C0004FF47A7001F06AFC00F0E8F92DA20021E3
:1008D000084600F058FB2FA1144800F0FAFE4FF430
:1008E0007A7001F05BFC00F0D9F930A200210846D3
:1008F00000F049FB31A10D4800F0EBFE4FF47A7097
:1009000001F04CFC00F0CAF910BD00003120415448
:100910002B43574D4F4445200000000041542B43CA
:10092000574D4F44453D320D0A000000003801404C
:10093000322041542B4357534150202000000000E7
:1009400041542B43575341503D2257494649222C8D
:1009500022313233343536373839222C31312C3488
:100960000D0A0000332041542B4349504D55582067
:100970000000000041542B4349504D55583D310D66
:100980000A000000342041542B434950534552562D
:100990004552200041542B4349505345525645522D
:1009A0003D312C353030300D0A00000035204154E7
:1009B0002B43495053544F200000000041542B4317
:1009C000495053544F3D300D0A0000002DE9F041CD
:1009D000024600250026002000230024002791F86D
:1009E00003C00CF00F0591F803C00CF0100CBCF123
:1009F000000F03D091F802C04CEA050591F800C041
:100A0000BCF1000F31D0146800202BE04FF0010C36
:100A10000CFA00F3B1F800C00CEA03069E4220D1A4
:100A200083004FF00F0C0CFA03F7BC4305FA03FCEC
:100A30004CEA040491F803C0BCF1280F06D14FF032
:100A4000010C0CFA00FCC2F814C00AE091F803C0D3
:100A5000BCF1480F05D14FF0010C0CFA00FCC2F8B4
:100A600010C0401C0828D1D31460B1F800C0BCF1FC
:100A7000FF0F34DD546800202EE000F1080C4FF029
:100A8000010808FA0CF3B1F800C00CEA03069E4214
:100A900021D183004FF00F0C0CFA03F7BC4305FA89
:100AA00003FC4CEA040491F803C0BCF1280F05D103
:100AB00000F1080C08FA0CF8C2F8148091F803C091
:100AC000BCF1480F07D100F1080C4FF0010808FAFB
:100AD0000CF8C2F81080401C0828CED35460BDE842
:100AE000F0810246002093680B400BB1012000E02A
:100AF00000207047416170470161704700BFFEE709
:100B000010B540210348FFF7F7FF40210148FFF7E8
:100B1000F1FF10BD000C014008B50121082000F0D4
:100B20005DFA4FF40050ADF8000003208DF802008C
:100B300048208DF8030069460F48FFF747FF4FF440
:100B40008040ADF8000003208DF8020048208DF8A9
:100B5000030069460848FFF739FF4FF40040ADF83D
:100B6000000003208DF8020048208DF8030069463C
:100B70000148FFF72BFF08BD000C014010B5002015
:100B8000204908702048006838B11F48001D0068DF
:100B900018B11D480830006800BB1C4800780128C7
:100BA0001CD10020194908700A2001F0F7FA1648F4
:100BB000006818B90120134908701FE01248001D91
:100BC000006818B902200F49087017E00E48083075
:100BD000006898B903200B4908700FE00A480068C4
:100BE00001280BD10848001D0068012806D10648DD
:100BF00008300068012801D10449087001480078D4
:100C000010BD00004900002034812142480000202E
:100C100000BFFEE77047000070B5002100230F22DF
:100C2000C47804B3154C246804F4E064C4F5E064AB
:100C3000210AC1F10403CA40447804FA03F184781C
:100C40001440214309010E4C0678A155047804F0A4
:100C50001F050124AC4005786D11AD0005F1E025BC
:100C6000C5F8004109E0047804F01F050124AC40F8
:100C7000044D0678761145F8264070BD0CED00E075
:100C800000E400E080E100E002490143024A116013
:100C9000704700000000FA050CED00E070B500247C
:100CA00018E004F1B000002100F061F900210846CD
:100CB00000F05DF90021102000F059F9002505E051
:100CC0000121002000F053F9681CC5B2802DF7DB2C
:100CD000601CC4B2082CE4DB70BD000010B54021DC
:100CE0000748FFF709FF80210548FFF705FF80212E
:100CF0000348FFF7FFFE40210148FFF7FBFE10BD50
:100D0000000C014010B540210548FFF7F5FE802199
:100D10000348FFF7EFFE80210148FFF7EDFE10BD0D
:100D2000000C014008B50121082000F057F94020CF
:100D3000ADF8000010208DF8030003208DF80200AC
:100D400069464748FFF742FE40214548FFF7D4FE79
:100D50000121082000F042F98020ADF800001020A9
:100D60008DF8030003208DF8020069463C48FFF728
:100D70002DFE80213A48FFF7BFFE4FF4487001F086
:100D80000DFA0021AE2000F0F2F80021084600F034
:100D9000EEF80021102000F0EAF80021402000F0D9
:100DA000E6F80021B02000F0E2F80021812000F0F8
:100DB000DEF80021FF2000F0DAF80021A12000F089
:100DC000D6F80021A62000F0D2F80021A82000F0DB
:100DD000CEF800213F2000F0CAF80021C82000F022
:100DE000C6F80021D32000F0C2F80021084600F028
:100DF000BEF80021D52000F0BAF80021802000F0D4
:100E0000B6F80021D82000F0B2F80021052000F04B
:100E1000AEF80021D92000F0AAF80021F12000F05E
:100E2000A6F80021DA2000F0A2F80021122000F03C
:100E30009EF80021DB2000F09AF80021302000F01D
:100E400096F800218D2000F092F80021142000F087
:100E50008EF80021AF2000F08AF8FFF71FFF08BDD1
:100E6000000C014070B504460D4605F1B0000021AC
:100E700000F07DF8102141EA1410002100F077F80D
:100E800004F00F00002100F072F870BD2DE9F0476A
:100E900080460E4691461F4600250024A9F12000F9
:100EA000C5B2B8F17F0F02DDA046B01CC6B2102F4C
:100EB00001D0022F24D131464046FFF7D3FF002452
:100EC00008E004EB0511194A505C012100F04FF8CD
:100ED000601CC4B2082CF4DB701CC1B24046FFF7A2
:100EE000C1FF002409E004EB051108310F4A505CF2
:100EF000012100F03CF8601CC4B2082CF3DB12E0C6
:100F000031464046FFF7AEFF00240AE005EB4501FD
:100F1000074A02EB4101085D012100F028F8601C3E
:100F2000C4B2062CF2DBBDE8F0870000AC2A000852
:100F3000842800082DE9F04104460F4615469846DE
:100F400000260FE0AA5D434639462046FFF79EFF84
:100F500004F10800C4B2782C02DD0024B81CC7B22A
:100F6000701CC6B2A85D0028ECD1BDE8F08170B558
:100F700004460D461DB1E0B200F010FC02E0E0B204
:100F800000F0F6FB70BD0FB430B589B004460D46D5
:100F90000FA80090202101A8009B0E9A00F028FCC9
:100FA00000200090102301AA29462046FFF7C2FF27
:100FB00009B030BC5DF814FB7047000029B1064A47
:100FC000D2690243044BDA6104E0034AD2698243E6
:100FD000014BDA61704700000010024029B1064A57
:100FE00092690243044B9A6104E0034A9269824386
:100FF000014B9A61704700000010024030B500219B
:101000000022002400232D4D6D6805F00C0121B154
:10101000042905D0082923D105E0294D056022E0E7
:10102000274D05601FE0254D6D6805F47012234DB6
:101030006D6805F48034022505EB92421CB9214D00
:10104000554305600BE01D4D6D6805F400351DB17D
:101050001C4D5543056002E0194D5543056002E003
:10106000174D056000BF00BF144D6D6805F0F0011D
:101070000909154D6B5C0568DD4045600F4D6D68D5
:1010800005F4E061090A104D6B5C4568DD40856040
:101090000A4D6D6805F46051C90A0B4D6B5C4568DB
:1010A000DD40C560054D6D6805F44041890B074D75
:1010B0006B5CC568B5FBF3F5056130BD00100240FF
:1010C00000127A0000093D001C0000202C000020C6
:1010D00008B501210420FFF781FFF020ADF80000E2
:1010E00003208DF8020010208DF8030069460248A5
:1010F000FFF76CFC08BD000000080140704710B508
:1011000000F002F810BD00000CB500200190009026
:101110003348006840F480303149086000BF3048EF
:10112000006800F4003000900198401C0190009885
:1011300018B90198B0F5A06FF1D12948006800F402
:10114000003010B10120009001E0002000900098D4
:10115000012843D12348006840F01000214908606D
:101160000846006820F0030008600846006840F068
:10117000020008601A4840681949486008464068FB
:1011800048600846406840F480604860084640680F
:1011900020F47C1048600846406840F4E81048603D
:1011A0000846006840F08070086000BF0C48006886
:1011B00000F000700028F9D00948406820F00300D2
:1011C000074948600846406840F00200486000BF98
:1011D0000348406800F00C000828F9D10CBD00005D
:1011E0000010024000200240042808D14FF0E02106
:1011F000096941F004014FF0E022116107E04FF06E
:10120000E021096921F004014FF0E02211617047EB
:101210007047000010B51348006840F00100114904
:10122000086008464068104908400E494860084672
:1012300000680E4908400B4908600846006820F421
:10124000802008600846406820F4FE0048604FF4A3
:101250001F008860FFF753FF4FF0006004490860EB
:1012600010BD0000001002400000FFF8FFFFF6FE76
:1012700008ED00E010B50121880700F064F840B1E6
:101280000121880700F050F802480078401C01490D
:10129000087010BD4A0000207FB505460C460121AC
:1012A0000846FFF78BFEADF80850ADF8044000206B
:1012B000ADF80A00ADF8060001A94FF0804000F03B
:1012C0005FF801221146900700F04EF81C208DF8BF
:1012D000000000208DF8010003208DF8020001209D
:1012E0008DF803006846FFF797FC0121880700F09E
:1012F0001EF87FBD10B50121094800F024F868B13F
:101300000848008840F4004006490880012104484C
:1013100000F00AF80021024800F009F810BD0000B2
:101320000004004036000020CA430282704721B109
:10133000028842F00102028004E002884FF6FE7348
:101340001A400280704730B5024600200023002476
:10135000158A05EA0103958905EA010413B10CB168
:10136000012000E0002030BD1AB183890B43838146
:1013700002E083898B43838170478184704700003A
:10138000002202881D4B98420ED01D4B98420BD074
:10139000B0F1804F08D01B4B984205D01A4B9842B1
:1013A00002D01A4B984204D14FF68F731A404B88E3
:1013B0001A43174B984207D0164B984204D04FF669
:1013C000FF431A40CB881A4302808B8883850B88A1
:1013D00003850A4B98420BD0094B984208D00E4B1C
:1013E000984205D00D4B984202D00D4B984201D146
:1013F0000B7A03860123838270470000002C014092
:10140000003401400004004000080040000C00408F
:101410000010004000140040004001400044014022
:101420000048014010B540F225510B4800F08BF800
:1014300080B10A480088B0F5C87F0BDA0648001D65
:101440000088C4B2054801880088401C034A108007
:101450000348445410BD000000380140340000200F
:101460004C00002010B540F22551164800F06BF8F2
:1014700000B3144800F022F9C4B21348008800F405
:101480000040B8B910480088B0F5C87F13DA0021D1
:101490000E48FFF772FF0C48008818B901210B486D
:1014A000FFF745FF084801880088401C064A108065
:1014B0000748445405E00448008840F400400249CD
:1014C000088010BD004400403600002000040040A9
:1014D0006C03002010B540F225510B4800F033F8A2
:1014E00080B10A480088B0F5C87F0BDA0648001DB5
:1014F0000088C4B2054801880088401C034A108057
:101500000348445410BD000000480040380000204B
:101510008C06002021B1828942F40052828104E0CD
:1015200082894DF6FF731A4082817047024600207F
:10153000B1F5007F00D100BF13880B400BB1012033
:1015400000E00020704770B502460024002300250B
:10155000002040F66A16B14200D100BFC1F3421527
:1015600001F01F03012606FA03F3012D02D196892B
:10157000334006E0022D02D1168A334001E0968AFC
:1015800033400C12012606FA04F41688344013B1D5
:101590000CB1012000E0002070BDF0B5034600242E
:1015A00000260025002040F66A17B94200D100BF8E
:1015B0001846C1F3421401F01F06012707FA06F589
:1015C000012C01D10C3004E0022C01D1103000E0DC
:1015D00014301AB107682F43076002E00768AF4371
:1015E0000760F0BD2DE9F04786B005460E460024A1
:1015F000A24600BFA1460027B08900B100BF2F4618
:101600002C8A4CF6FF700440F08804432C82AC898D
:101610004EF6F3100440B0883189084371890843BD
:101620000443AC81AC8A4FF6FF400440B0890443C8
:10163000AC8201A8FFF7E2FC1F48874202D1DDF827
:1016400010A001E0DDF80CA0A88900F4004040B132
:101650000AEBCA0000EB0A1031684900B0FBF1F850
:1016600007E00AEBCA0000EB0A1031688900B0FB02
:10167000F1F86420B8FBF0F004012009642101FBBB
:101680001089A88900F4004040B1322000EBC90065
:10169000B0FBF1F000F00700044308E0322000EB5B
:1016A00009106421B0FBF1F000F00F0004432C811D
:1016B00006B0BDE8F0870000003801400146888888
:1016C000C0F308007047C1F308028280704700BF72
:1016D000FEE70FB430B5CBB0054601AC50A8009082
:1016E0004FF4947101A8009B4F9A00F081F80020FC
:1016F00000900BE014F8011B2846FFF7E4FF00BF41
:1017000040212846FFF712FF0028F9D02078002852
:10171000F0D14BB030BC5DF814FB00002DE9F04176
:1017200005462C4640211148FFF7E4F9002619E050
:10173000274607F08007802F04D180210B48FFF750
:10174000DBF903E080210948FFF7D4F96006040EB5
:1017500040210648FFF7D0F940210448FFF7CAF9B5
:10176000701CC6B2082EE3DBBDE8F081000C01401E
:1017700010B50446FFF7B2FA7820FFF7CFFFFFF766
:10178000BFF90020FFF7CAFFFFF7BAF92046FFF7BD
:10179000C5FFFFF7B5F9FFF7B5FA10BD10B5044660
:1017A000FFF79CFA7820FFF7B9FFFFF7A9F940206F
:1017B000FFF7B4FFFFF7A4F92046FFF7AFFFFFF7ED
:1017C0009FF9FFF79FFA10BD0FB4084B10B504A99D
:1017D00002AA039800F0E0F8044602A9002000F0F5
:1017E0007DFC204610BC5DF814FB0000DD200008E5
:1017F0007CB5491E1C461546CDE90001044B6A46DE
:101800002146284600F0C8F8009A002111707CBDDE
:10181000C720000802E008C8121F08C1002AFAD138
:1018200070477047002001E001C1121F002AFBD160
:10183000704700002DE9FF5FDDE90220010DDDF8B2
:1018400038B0024318D044F61050A1F2FF314143A2
:101850000D140F98012820D0A5EB0B00401C5FEA67
:10186000000A4FF00004474EDFF81C91A046504696
:1018700016D5CAF1000728E00F98012443A20128D9
:1018800008D0002100980F9BC0E90021C0E9024365
:10189000BDE8FF9F6FEA0B01F4E7CBF10000DEE744
:1018A000074612E0F80707D022463346404649462D
:1018B000FEF7F6FE80468946224633461046194614
:1018C000FEF7EEFE04460E467F10002FEAD1DDE95A
:1018D0000201BAF1000F42464B4602DAFEF7E0FE83
:1018E00001E0FEF797FC04460E460022284BFEF767
:1018F00061FF03D84FF0FF30014607E00022254B7F
:1019000020463146FEF725FEFEF73CFF102409E095
:10191000002C0ADB0A220023FEF756FD019B303221
:101920001A55641E50EA0102F2D1641C019AC4F1F6
:10193000110314440F9A012A03D0012208430DD148
:101940000AE0084304D000204FF0110B0F9080E70D
:10195000A3EB0B056D1E0DE05B4504DD4FF00002AF
:1019600005F1010504E003DA4FF00002A5F10105DD
:10197000002AECD000980F99C0E90231C0E9004577
:1019800086E70000000024400000F03F3000000027
:101990000000F0430000E03F2DE9FF4F95B09B466B
:1019A0008946064600250FE2252877D100242746E0
:1019B000F84A0121059400E0044316F8013F203B5A
:1019C00001FA03F01042F7D130782A2811D06FF0D5
:1019D0002F033078A0F13002092A16D8059A44F076
:1019E000020402EB820203EB42021044761C0590D3
:1019F000EFE759F8042B0592002A03DA504244F429
:101A00000054059044F00204761C30782E2816D13C
:101A100016F8010F44F004042A280DD06FF02F02AD
:101A20003078A0F13003092B09D807EB870302EBCC
:101A30004303C718761CF3E759F8047B761C30780B
:101A40006C280FD006DC4C2817D068280DD06A28E7
:101A500014D104E0742810D07A280FD10DE044F49A
:101A600000140AE044F4801401E044F44014727855
:101A7000824202D104F58014761C761C30786628E8
:101A80000BD013DC582877D009DC002875D0452806
:101A9000F6D04628F4D047281AD19DE118E06328F3
:101AA00035D0642879D0652812D195E1702873D09B
:101AB00008DC6728F1D069286FD06E280DD06F2818
:101AC00006D1B5E073282CD0752875D0782874D04D
:101AD0005A46179990476D1C75E1C4F302500228CD
:101AE00009D003280DD0D9F8001004280DD00D60BE
:101AF00009F1040967E1D9F80010EA17C1E90052B9
:101B0000F6E7D9F800100D80F2E70D70F0E719F84C
:101B1000041B8DF8001000208DF80100EA4601201A
:101B200003E059F804AB4FF0FF3061074FF00001BC
:101B300002D40DE008F101018846B9420FDA804570
:101B4000F8DB1AF808100029F4D108E008F10101C7
:101B500088468142FADB1AF808100029F6D1059868
:101B60005B46A0EB080721463846179A00F094FA26
:101B7000284400EB080507E04DE029E10DE01AF8E4
:101B8000010B5A4617999047B8F10108F7D25B4606
:101B900021463846179A13E142E00A220092C4F324
:101BA00002524FF0000A022A08D059F804CB032A47
:101BB0004FEAEC710AD00DE029E02AE009F10701B3
:101BC00021F00702F2E802C1914609E00FFA8CFC0D
:101BD0004FEAEC71042A03D14FFA8CFC4FEAEC7106
:101BE000002907DA0A460021DCF1000C61EB020152
:101BF0002D2202E0220504D52B228DF8042001229B
:101C000003E0E20701D02022F7E7904659E00A21DD
:101C100002E010220DE010214FF0000A00910BE0CD
:101C200010224FF0000A44F004040827009203E059
:101C300008224FF0000A0092C4F30252022A05D093
:101C400059F804CB0021032A08D009E009F1070163
:101C500021F00702F2E802C1914605E01FFA8CFC70
:101C6000042A01D10CF0FF0C4FF00008220728D500
:101C7000702806D0009B83F0100353EA0A0305D0B6
:101C80000EE040228DF80420012208E05CEA010207
:101C900006D030228DF804208DF8050002229046EF
:101CA000009B83F0080353EA0A030AD15CEA0102AD
:101CB00001D1620705D530228DF804204FF00108CC
:101CC0007F1E582804D034A003900EA802900DE087
:101CD00036A0F9E753466046009AFEF775FB844646
:101CE0000398825C0298401E029002705CEA010038
:101CF000F0D1029806A9081A00F1200A600702D55F
:101D000024F4803400E00127574502DDA7EB0A00E8
:101D100000E0002000EB0A01009005984144401AC1
:101D20000590E00306D45B462146179A059800F01B
:101D3000B3F90544002706E001A85A46C05D17998B
:101D400090476D1C7F1C4745F6DBE0030CD55B46D6
:101D50002146179A059800F09FF9054404E03020C9
:101D60005A46179990476D1C0099481E009000290B
:101D7000F5DC08E0029802995A460078491C029165
:101D8000179990476D1CBAF10001AAF1010AF1DC24
:101D900065E100000928010030313233343536372F
:101DA00038396162636465660000000030313233A7
:101DB0003435363738394142434445460000000047
:101DC00000F058F90544761C307800287FF4ECAD1B
:101DD00019B02846BDE8F08F620700D4062709F144
:101DE000070222F0070CFCE80223E14603F000485A
:101DF0005FEA080C02D00FF2702C0DE05FEA045C81
:101E000002D50FF2682C07E05FEAC47C02D00FF223
:101E1000602C01E0AFF2700C4FF0FF3823F000436C
:101E2000CDF850C065280CD006DC452809D04628DE
:101E30001DD047283DD13DE0662818D067287ED1C7
:101E400038E00021112F01DB112000E0781CCDE9E2
:101E5000000106A90EA8FFF7EDFCDDE90F010E9ABF
:101E600003910021009207F1010A04914DE04FF027
:101E700000400097CDE9011006A90EA8FFF7DAFC93
:101E8000DDE90F0203920E9B11990022DDF80CA0F0
:101E90000093049211B9791C00EB010AB7EB0A0018
:101EA00004D4C0F1FF3007F1010A0490AAEB070047
:101EB000019044E0012F00DA01270021112F01DDFC
:101EC000112000E03846CDE9000106A90EA8FFF771
:101ED000B1FCDDE90F010E9A0391002104910092FB
:101EE000BA4621070CD40399514500DA8A46BAF163
:101EF000010F05DD009AAAF10101515C302908D0DB
:101F0000B84202DA10F1040F06DA0121CDE901101E
:101F100015E0AAF10101E9E7002805DC0499014474
:101F20000491AAEB000102E0411C514500DD8A4604
:101F30000499401A401C01904FF000400290200785
:101F400004D40198504501DBCDF8048000208DF8C1
:101F50004F0002980DF14F07B0F1004F25D02B2014
:101F60000E9002984FF0020800280CDA40420290CE
:101F70002D200E9007E00A210298FEF70FFA30316B
:101F8000029007F8011DB8F10001A8F10108F2DC88
:101F900002980028EFD1791E0E980870307800F072
:101FA000200040F0450007F8020D12A8C01B00F108
:101FB00007081498007800B1012000EB0A0101988D
:101FC00001EBE07105984144401A401E0590E00382
:101FD00006D45B462146179A059800F05DF8054443
:101FE0001498007818B15A46179990476D1CE00371
:101FF00024D55B462146179A059800F04DF8054414
:102000001CE00498002807DBDDE90301884203DDBA
:102010000098405C179901E0179930205A46904784
:10202000049805F10105401C04900198401E0190A0
:1020300004D12E205A46179990476D1CBAF1000121
:10204000AAF1010ADDDC05E017F8010B5A461799E1
:1020500090476D1CB8F10001A8F10108F4DC5B4663
:102060002146179A0598ABE62D0000002B000000D2
:10207000200000002DE9F041044600251E461746C9
:10208000880404D405E039462020B0476D1C641E46
:10209000F9D52846BDE8F0812DE9F0410446002538
:1020A0001E469046C80301D5302700E0202788044B
:1020B00004D505E041463846B0476D1C641EF9D58D
:1020C0002846BDE8F0814A68002A06D00A68531CF9
:1020D0000B6010704868401E486070470A68531CC7
:1020E0000B6010707047000010B500241248008883
:1020F00005281EDD322000F051F810A11148FEF72E
:102100001FF800B1012410A10E48FEF719F800B124
:1021100002240FA10B48FEF713F800B1032400209E
:10212000054908804FF4C8710648FDF7FEFF2046B8
:1021300010BD0020FCE70000340000204750494F4C
:10214000303D30004C0000204750494F303D3100B9
:102150004750494F303D320010B56FF00400FFF793
:1021600043F80A4800680A49B0FBF1F009490870D1
:102170000846007800EB4001C1EBC0104FF6FF713C
:1021800001EAC0000449088010BD000008000020DA
:1021900000127A0030000020320000200146114A6F
:1021A00012884A434FF0E0235A6100229A611A468E
:1021B000126942F001021A6100BF4FF0E02210697B
:1021C00000F001021AB100F48032002AF5D04FF07D
:1021D000E022126922F001024FF0E0231A6100228E
:1021E0009A617047320000200146114A12784A4332
:1021F0004FF0E0235A6100229A611A46126942F0B8
:1022000001021A6100BF4FF0E022106900F00102E4
:102210001AB100F48032002AF5D04FF0E0221269A2
:1022200022F001024FF0E0231A6100229A61704708
:102230003000002008B501210820FEF7CFFE022063
:10224000ADF8000003208DF8020004208DF8030093
:1022500069460248FEF7BAFB08BD0000000C0140C9
:1022600008B501210820FEF7B9FE0220ADF80000F4
:1022700003208DF8020010208DF803006946024803
:10228000FEF7A4FB08BD0000000C014010B500BF24
:1022900002210C48FEF725FC0028F9D02820FFF782
:1022A000A3FF02210748FEF71CFC012808D100BF4C
:1022B00002210448FEF715FC0128F9D0012010BDC9
:1022C0000020FCE7000C014070B50024002508E068
:1022D0004FF6FF7000EA4404FFF7D8FF0443681C80
:1022E00085B2082DF4DB204670BD000070B50446B1
:1022F000002500F033F800F049F850BB00BF00F0B3
:1023000045F80028FBD000BF00F040F80128FBD0C2
:10231000002504E0FFF7D8FF6055681C85B2052D45
:10232000F8DB00BF00F032F80028FBD0FFF798FF81
:1023300002210948FEF7E0FB207861780844A17883
:102340000844E1780844C6B22079B04201D00120A7
:1023500070BD0020FCE70000000C014010B5FFF745
:102360007FFF02210848FEF7C5FB44F63820FFF73F
:102370003BFF02210448FEF7BFFB1E20FFF734FF9E
:10238000FFF758FF10BD0000000C014010B50221FE
:102390000148FEF7A6FB10BD000C01402DE9FC47EB
:1023A0006846FFF7A3FF00284BD19DF80100FDF719
:1023B000A5FF07460022244BFDF72CFF0546FDF73D
:1023C000BDFF81469DF80000FDF793FF8246494618
:1023D000FDF7C8FE044600212046FDF7CBFF2DD0B7
:1023E0009DF80100FDF78AFF07460022164BFDF716
:1023F00011FF0546FDF7A2FF81469DF80000FDF79D
:1024000078FF82464946FDF7ADFE104908609DF809
:102410000300FDF773FF074600220B4BFDF7FAFEA2
:102420000546FDF78BFF81469DF80200FDF761FF31
:1024300082464946FDF796FE054908600020BDE842
:10244000FC870120FBE70000000024404000002042
:102450003C0000208CB0FEF7DDFEFFF77DFE4FF460
:10246000A060FEF711FCFEF75DFC4FF4E13000F0D8
:10247000B9F9FEF72DFE0120B5490860B549C1F84C
:102480009401B34908310860B249C1F89C01FEF7D4
:10249000EFF9FEF741FB41F61F4142F20F70FEF7E4
:1024A000FBFE53E1FFF720FE044614B9FEF766FB7E
:1024B0000446012C38D1A8480078401CA649087071
:1024C00008460078052801D100200870FEF7E6FBD9
:1024D000A1480078012806D002280CD0032812D089
:1024E000042820D117E09D4803789DA201210020F7
:1024F000FEF749FD17E09C4803789CA201210020CB
:10250000FEF741FD0FE09B4803789BA201210020CC
:10251000FEF739FD07E09B4803789BA201210020CC
:10252000FEF731FD00BF00BF9A48007801287BDD2F
:1025300000209849087088480078002876D1FFF775
:102540002DFF95480068FDF7E6FE94A2CDE9000155
:1025500001210020FEF717FD93480068FDF7DBFE20
:1025600092A2CDE9000104210020FEF70CFD8E4867
:102570000068FDF7D0FE05460E4687480068FDF767
:10258000CAFE07463A460B468BA102A8CDE9005683
:10259000FFF71AF900F0FF094A468BA18F48FFF7B1
:1025A00098F8C820FFF7FAFD02AA8DA18B48FFF723
:1025B00090F86A480078FDF79CFE05467648016869
:1025C0002846FDF7D7FE02D2002061490860664820
:1025D0000078FDF78EFE05466F4801682846FDF736
:1025E000D3FE03D200205A49091D086061480078D3
:1025F000FDF77FFE05466C4801682846FDF7BAFEE8
:1026000003D200205249083108605E480078FDF787
:1026100070FE0546644801682846FDF7B5FE11D2F4
:1026200004204B49091D08600CE0FFE701204849E0
:1026300008604849C1F89401454908310860454996
:10264000C1F89C01022C3FD143480078012806D0F4
:10265000022811D003281CD0042834D126E03F489A
:102660000078401C3D490870084603783CA20121CF
:102670000020FEF788FC26E03B480078401C3A49E1
:1026800008700846037839A201210020FEF77BFC80
:1026900019E038480078401C36490870084603782D
:1026A00035A201210020FEF76EFC0CE035480078D1
:1026B000401C344908700846037833A201210020E9
:1026C000FEF761FC00BF00BF032C3FD12248007819
:1026D000012806D0022811D003281CD0042834D1A8
:1026E00026E01E480078401E1C4908700846037802
:1026F0001BA201210020FEF746FC26E01A480078C4
:10270000401E194908700846037818A201210020CC
:10271000FEF739FC19E017480078401E154908708B
:102720000846037814A201210020FEF72CFC0CE0DF
:1027300014480078401E134908700846037812A216
:1027400001210020FEF71FFC00BF00BFAAE6000029
:1027500090012142000021420000002001000020E1
:1027600054483A256443200002000020544C3A2586
:10277000644320000300002048483A2564252520B2
:102780000000000004000020484C3A256425252064
:10279000000000004A0000203C00002054656D70DD
:1027A0003A252E31664300004000002048756D69CF
:1027B0003A252E3166252500252E316657252E31E6
:1027C0006625572F722F6E0041542B4349505345B5
:1027D0004E443D302C25640D0A00000000380140B5
:1027E0002573000010B586B00446012144F20400B0
:1027F000FEF7F4FB4FF40070ADF8140003208DF8E1
:10280000160018208DF8170005A91C48FEF7DEF801
:102810004FF48060ADF8140004208DF8170005A96E
:102820001648FEF7D3F825208DF8000002208DF819
:1028300001008DF8020001208DF803006846FEF7C4
:10284000EBF901940020ADF80800ADF80A00ADF8EE
:102850000C00ADF810000C20ADF80E0001A90848DE
:10286000FEF7C0FE012240F225510548FEF795FE15
:1028700001210348FEF74EFE06B010BD00080140DE
:10288000003801400000000000000000002F0000A0
:1028900000000700070000147F147F1400242A7F23
:1028A0002A120062640813230036495522500000A2
:1028B0000503000000001C224100000041221C0012
:1028C0000014083E08140008083E0808000000A094
:1028D0006000000808080808000060600000002090
:1028E00010080402003E5149453E0000427F40006E
:1028F000004261514946002141454B3100181412F4
:102900007F10002745454539003C4A4949300001C0
:102910007109050300364949493600064949291E0F
:102920000000363600000000563600000008142271
:102930004100001414141414000041221408000271
:102940000151090600324959513E007C1211127C96
:10295000007F49494936003E41414122007F4141C3
:10296000221C007F49494941007F09090901003EB5
:102970004149497A007F0808087F0000417F4100F3
:10298000002040413F01007F08142241007F404069
:102990004040007F020C027F007F0408107F003E51
:1029A0004141413E007F09090906003E4151215E37
:1029B000007F091929460046494949310001017F34
:1029C0000101003F4040403F001F2040201F003FCA
:1029D0004038403F0063140814630007087008077C
:1029E00000615149454300007F41410000552A558F
:1029F0002A55000041417F0000040201020400400A
:102A0000404040400000010204000020545454782B
:102A1000007F48444438003844444420003844444B
:102A2000487F00385454541800087E0901020018E9
:102A3000A4A4A47C007F080404780000447D400026
:102A4000004080847D00007F102844000000417F0A
:102A50004000007C04180478007C080404780038E6
:102A60004444443800FC242424180018242418FC6E
:102A7000007C0804040800485454542000043F44D7
:102A80004020003C4040207C001C2040201C003C9A
:102A90004030403C004428102844001CA0A0A07CEA
:102AA000004464544C441414141414140000000022
:102AB000000000000000000000000000000000F81E
:102AC00000000000000000333000000000100C0681
:102AD000100C0600000000000000000040C078401C
:102AE000C0784000043F04043F040400007088FCE8
:102AF00008300000001820FF211E0000F008F00040
:102B0000E018000000211C031E211E0000F00888B0
:102B1000700000001E2123241927211010160E001A
:102B2000000000000000000000000000000000E0C5
:102B300018040200000000071820400000020418DA
:102B4000E00000000040201807000000404080F036
:102B5000804040000202010F01020200000000F06C
:102B6000000000000101011F010101000000000040
:102B70000000000080B070000000000000000000B5
:102B8000000000000001010101010101000000003E
:102B900000000000003030000000000000000000D5
:102BA00080601804006018060100000000E01008B2
:102BB0000810E000000F102020100F00001010F887
:102BC000000000000020203F2020000000700808C6
:102BD0000888700000302824222130000030088846
:102BE000884830000018202020110E000000C0206E
:102BF00010F8000000070424243F240000F808888F
:102C0000880808000019212020110E0000E010881B
:102C100088180000000F112020110E00003808084D
:102C2000C83808000000003F00000000007088085D
:102C300008887000001C222121221C0000E01008DE
:102C40000810E0000000312222110F00000000C037
:102C5000C0000000000000303000000000000080D4
:102C600000000000000080600000000000008040C4
:102C700020100800000102040810200040404040DD
:102C80004040400004040404040404000008102030
:102C90004080000000201008040201000070480875
:102CA0000808F0000000003036010000C030C828DD
:102CB000E810E0000718272423140B000000C03898
:102CC000E0000000203C23020227382008F8888812
:102CD00088700000203F202020110E00C03008081E
:102CE00008083800071820202010080008F80808F5
:102CF0000810E000203F202020100F0008F88888EE
:102D0000E8081000203F20202320180008F88888B9
:102D1000E8081000203F200003000000C030080831
:102D20000838000007182020221E020008F80800BA
:102D30000008F808203F210101213F20000808F881
:102D4000080800000020203F2020000000000808A4
:102D5000F8080800C08080807F00000008F888C064
:102D600028180800203F20012638200008F8080015
:102D700000000000203F20202020300008F8F8004C
:102D8000F8F80800203F003F003F200008F830C05E
:102D90000008F808203F200007183F00E01008084E
:102DA0000810E0000F10202020100F0008F808087D
:102DB0000808F000203F210101010000E010080890
:102DC0000810E0000F18242438504F0008F88888B5
:102DD00088887000203F2000030C30200070880895
:102DE000080838000038202121221C00180808F8A3
:102DF000080818000000203F2000000008F8080024
:102E00000008F808001F202020201F0008788800F4
:102E100000C83808000007380E010000F80800F864
:102E20000008F800033C0700073C0300081868800E
:102E30008068180820302C03032C30200838C80084
:102E4000C83808000000203F2000000010080808D3
:102E5000C83808002038262120201800000000FE75
:102E6000020202000000007F40404000000C30C021
:102E700000000000000000010638C000000202024D
:102E8000FE000000004040407F00000000000402FF
:102E9000020204000000000000000000000000002A
:102EA000000000008080808080808080000202041A
:102EB0000000000000000000000000000000808012
:102EC000808000000019242222223F2008F8008080
:102ED00080000000003F112020110E000000008043
:102EE00080800000000E11202020110000000080D2
:102EF0008088F800000E112020103F200000808004
:102F000080800000001F222222221300008080F017
:102F1000888888180020203F202000000000808042
:102F200080808000006B94949493600008F8008087
:102F300080800000203F210000203F2000809898E2
:102F4000000000000020203F202000000000008042
:102F50009898000000C08080807F000008F8000082
:102F600080808000203F24022D302000000808F8D7
:102F7000000000000020203F202000008080808092
:102F800080808000203F20003F20003F8080008024
:102F900080800000203F210000203F200000808032
:102FA00080800000001F202020201F0080800080E3
:102FB0008000000080FFA12020110E000000008092
:102FC00080808000000E112020A0FF808080800083
:102FD0008080800020203F212000010000008080B0
:102FE000808080000033242424241900008080E0A5
:102FF000808000000000001F202000008080000072
:1030000000808000001F202020103F208080800052
:103010000080808000010E30080601008080008062
:10302000008080800F300C030C300F000080800087
:10303000808080000020312E0E31200080808000B2
:103040000080808080818E70180601000080808062
:10305000808080000021302C222130000000000000
:10306000807C020200000000003F404000000000A1
:10307000FF00000000000000FF0000000002027CD2
:10308000800000000040403F0000000000060101F9
:10309000020204040000000000000000BC30000830
:1030A000000000204C00000014180008083100083F
:1030B0004C000020640D000024180008001E0A5077
:1030C0003200000000A24A040000000000000000DE
:1030D00001020304060708090000000001020304BE
:1030E00001020304060708090204060800000000A4
:1030F00000000000000000000000000000000000D0
:083100000000000000000000C7
:0400000508000101ED
:00000001FF
